S0160000454550524F4D5F457861706D6C652E737265631B
S11300000C942A000C9447000C9447000C9447006D
S11300100C9447000C9447000C9447000C94470040
S11300200C9447000C9447000C9447000C94470030
S11300300C9447000C9447000C9447000C94470020
S11300400C9447000C9447000C9447000C94470010
S11300500C94470011241FBECFE5D8E0DEBFCDBF0E
S113006010E0A0E6B0E0EEE2F2E002C005900D92EE
S1130070A036B107D9F710E0A0E6B0E001C01D92A8
S1130080A036B107E1F70E9449000C9415010C94C5
S113009000008A9A899AC0E010E0D1E08FEF93E0E3
S11300A00E941001833019F4929A919804C085300B
S11300B011F4919A9298CC2339F48FEF93E063E092
S11300C00E940701CD2F08C0C13031F48FEF93E0B7
S11300D065E00E940701C12F8FEF99E6A8E18150E6
S11300E09040A040E1F700C00000D8CF613029F46F
S11300F0E82FF0E08FEF81830895662319F4E82F49
S1130100F0E011820895413079F4E82FF0E0218184
S113011081E090E0AC0102C0440F551F6A95E2F7FC
S1130120BA01622B61830895442379F4E82FF0E047
S1130130218181E090E0AC0102C0440F551F6A9513
S1130140E2F7BA016095622361830895E82FF0E035
S113015062830895413079F4E82FF0E0228181E050
S113016090E0AC0102C0440F551F6A95E2F7BA0152
S1130170622B62830895442379F4E82FF0E022810E
S113018081E090E0AC0102C0440F551F6A95E2F78C
S1130190BA016095622362830895CF93DF930F922F
S11301A0CDB7DEB7E82FF0E08081898389810F9095
S11301B0DF91CF910895CF93DF930F92CDB7DEB740
S11301C0E82FF0E0808190E09C0102C035952795EE
S11301D06A95E2F7B9016170698389810F90DF91B3
S11301E0CF910895E82FF0E082818F70828382811D
S11301F06295607F682762830895E82FF0E082812A
S1130200807F828382816F706827628308958EBBAA
S11302109FBB6DBBE29AE19A8CB381FDFDCF08953B
S11102209FBB8EBBE09A8DB30895F894FFCF78
S9030000FC
