S0170000707265656D7074696F6E5F52544F532E7372656323
S11300000C942A000C9447000C9447000C9447006D
S11300100C9447000C9447000C9447000C94720510
S11300200C9447000C9447000C9447000C94470030
S11300300C9447000C9447000C9447000C94470020
S11300400C9447000C9447000C9447000C94470010
S11300500C94470011241FBECFE5D8E0DEBFCDBF0E
S113006010E0A0E6B0E0EAEDF7E202C005900D92E0
S1130070A237B107D9F714E0A2E7B0E001C01D929E
S1130080AB32B107E1F70E94A5050C94EB130C9475
S11300900000442341F46823792381E0611571054C
S11300A051F480E008959B012823392381E06217ED
S11300B0730709F080E00895CF93DF938BE090E01D
S11300C00E949202EC01009731F0FC01119211920E
S11300D0CF010E946B038C2F9D2FDF91CF91089548
S11300E0AF92BF92CF92DF92EF92FF920F931F9342
S11300F0CF93DF935C016B01E42EF22E0E94500D2E
S1130100F501C081D181CE01B6014F2D0E94490075
S1130110882351F0EE2001F1C094D094CC22DD224A
S1130120F501D182C08218C001151105A9F0EE2095
S113013019F460E070E002C060E071E0F1107460F6
S11301406C297D29C5010296A8010E94DD0F0E9439
S1130150150E882339F404C00E94150ECE0121C067
S11301600E94BC040E946311EC0191FD18C00FB6FB
S1130170F8940F92F501C081D181CE01B6014F2DC3
S11301800E944900882349F0EE2039F0C094D094AD
S1130190CC22DD22F501D182C0820F900FBECE01A8
S11301A09070DF91CF911F910F91FF90EF90DF90AE
S11301B0CF90BF90AF900895FC010FB6F8940F92C2
S11301C08081918160957095682379237183608320
S11301D00F900FBE0895FC01808191810895AF9224
S11301E0BF92CF92DF92EF92FF920F931F93CF9320
S11301F0DF938C01EB010F2EF5E0CF2EDD24F02DE3
S1130200C80ED91E0E94500DD8011796ED91FC918D
S113021018978D919C9111978C2B9D2B11969C93E3
S11302208E93CE16DF06C1F1AA24BB24FF24F394D7
S1130230EE2401C0FE01C281D38180819181BC0181
S113024060709C01307092FD0BC0D8018D919C911F
S11302501197822393234F2D009769F44E2D0BC0E1
S1130260D8018D919C911197822393234F2D2817A8
S1130270390709F04E2D442359F070FF02C0A22A19
S1130280B32AD8016D917C917260CF010E94411014
S1130290CC16DD0679F602C0AA24BB24C5018095DC
S11302A09095F801A080B180A822B922B182A082E1
S11302B00E94150ED8018C9111969C911197DF9193
S11302C0CF911F910F91FF90EF90DF90CF90BF904F
S11302D0AF900895AF92BF92CF92DF92EF92FF92C8
S11302E00F931F93CF93DF936C01EB017A015901B4
S11302F00E94500DF60100811181C601BE010E94C9
S1130300EF00C02BD12BC7018C239D238E159F0595
S113031051F480959095F6012081318182239323B5
S11303209183808312C0A114B10461F0B701756098
S1130330C6010296A5010E94DD0F0E94150E8823B6
S113034049F406C0F601C081D1810E94150E1CC07B
S11303500E94BC040E94631191FD14C00FB6F8946E
S11303600F92F601808191819701282339232E155C
S11303703F0531F420953095282339233183208398
S11303800F900FBEEC01D0708C2F9D2FDF91CF9179
S11303901F910F91FF90EF90DF90CF90BF90AF909F
S11303A00895CF93DF93EC010E94500D8A81882336
S11303B049F08F81988560E072E00E9441108A8143
S11303C08823B9F7CE010E9432030E94150EDF91F3
S11303D0CF910895BA010E94EF000895BA010E94D6
S11303E0DC000895613029F4E82FF0E08FEF818379
S11303F00895662319F4E82FF0E01182089541303E
S113040079F4E82FF0E0218181E090E0AC0102C0B2
S1130410440F551F6A95E2F7BA01622B6183089570
S1130420442379F4E82FF0E0218181E090E0AC01ED
S113043002C0440F551F6A95E2F7BA016095622322
S113044061830895E82FF0E062830895413079F4E0
S1130450E82FF0E0228181E090E0AC0102C0440F7B
S1130460551F6A95E2F7BA01622B6283089544230B
S113047079F4E82FF0E0228181E090E0AC0102C041
S1130480440F551F6A95E2F7BA01609562236283AF
S11304900895CF93DF930F92CDB7DEB7E82FF0E046
S11304A08081898389810F90DF91CF910895CF93C3
S11304B0DF930F92CDB7DEB7E82FF0E0808190E0B4
S11304C09C0102C0359527956A95E2F7B9016170E0
S11304D0698389810F90DF91CF910895E82FF0E02F
S11304E0228181E090E0AC0102C0440F551F6A955F
S11304F0E2F7BA01622762830895E82FF0E082816F
S11305008F70828382816295607F682762830895F9
S1130510E82FF0E08281807F828382816F70682778
S1130520628308950F931F93CF93DF93EC010E948E
S1130530500D809172008823F9F48CE790E0909339
S113054074008093730010927600109275008FE10E
S113055093E090937A0080937900E9E7F0E01292B7
S1130560129290937F0080937E00F0937D00E0933D
S11305707C0081E080937200209709F462C09E01A0
S11305802C5F3F4F239683E0CE31D80708F05CC040
S1130590E0917300F0917400A3E7B0E002C0DF01C2
S11305A0FC01828193818217930720F480819181D9
S11305B00097A9F7C0E0E737FC0709F448C08D911C
S11305C09C9111978C010C5F1F4F80819181119632
S11305D09C938E9382819381821B930B8930910526
S11305E018F1AF01420F531FDA0113969C938E93B7
S11305F012973383228312962D913C91139763E7CC
S113060070E001C0BD01EB01A881B98112968D9102
S11306109C91139782179307A8F3EA01B983A883DF
S1130620DB0111965C934E93809160009091610080
S113063022813381821B930B90936100809360002D
S113064008C000E010E005C000E010E002C000E0D7
S113065010E00E94150E802F912FDF91CF911F91F2
S11306600F9108950F931F93CF93DF93EC0100979D
S113067039F18C01045010400E94500DF801228180
S11306803381A3E7B0E001C0DF01ED91FC91119744
S11306908281938182179307B8F32497F983E883BF
S11306A00D931C9380916000909161002A813B819D
S11306B0820F931F90936100809360000E94150E37
S11306C0DF91CF911F910F910895809160009091D7
S11306D0610008950895FC010396928381832FEFAE
S11306E03FEF3483238396838583908787831082A7
S11306F00895FC01118610860895CF93DF93FB01C2
S1130700DC011196CD91DC911297D383C2832C81A5
S11307103D8135832483AC81BD8113967C936E9394
S113072012977D836C8391878087FC0120812F5FE2
S11307302083DF91CF910895CF93DF93AC01EB0138
S1130740288139818FEF2F3F380721F4FA01A781DF
S1130750B0850DC0DA01139601C0DF011296ED9148
S1130760FC9113978081918128173907B0F712966D
S1130770ED91FC911397FB83EA83D583C483BD83F6
S1130780AC831396DC93CE93129759874887FA016A
S113079080818F5F8083DF91CF910895CF93DF9322
S11307A0FC01C085D185A281B38184819581159690
S11307B09C938E931497A481B5818281938113961F
S11307C09C938E931297A981BA81AE17BF0731F417
S11307D014968D919C9115979A838983118610861E
S11307E0888181508883DF91CF91089521E1FC01B4
S11307F02083319732E23083FC013297A3E3A08354
S1130800FC0133976083FC0134977083FC013597B6
S11308101082FC01369760E86083FC0137971082F0
S1130820FC01389762E06083FC01399763E06083E0
S1130830FC013A9764E06083FC013B9765E06083C8
S1130840FC013C9766E06083FC013D9767E06083B0
S1130850FC013E9768E06083FC013F9769E0608398
S1130860FC01709760E16083FC0171972083FC01B7
S1130870729722E12083FC01739723E12083FC011A
S1130880749724E12083FC01759725E12083FC0102
S1130890769726E12083FC01779727E12083FC01EA
S11308A0789728E12083FC01799729E12083FC01D2
S11308B07A9720E22083FC017B9721E22083FC01CC
S11308C07C973083FC017D9723E22083FC017E9793
S11308D04083FC017F975083FC01B09726E220837C
S11308E0FC01B19727E22083FC01B29728E2208320
S11308F0FC01B39729E22083FC01B49720E3208311
S1130900FC01B59721E32083869708951BBC8CE7EF
S11309108ABD8BE08EBD89B7806189BFA0919C039D
S1130920B0919D03CD91CDBFDD91DEBFFF91EF91DD
S1130930DF91CF91BF91AF919F918F917F916F91F3
S11309405F914F913F912F911F910F91FF90EF90E5
S1130950DF90CF90BF90AF909F908F907F906F90DB
S11309605F904F903F902F901F900F900FBE0F906D
S1130970089581E0089508950F920FB6F8940F92A8
S11309801F9211242F923F924F925F926F927F9207
S11309908F929F92AF92BF92CF92DF92EF92FF928B
S11309A00F931F932F933F934F935F936F937F9373
S11309B08F939F93AF93BF93CF93DF93EF93FF9363
S11309C0A0919C03B0919D030DB60D920EB60D92AD
S11309D00E94200FA0919C03B0919D03CD91CDBFA7
S11309E0DD91DEBFFF91EF91DF91CF91BF91AF9188
S11309F09F918F917F916F915F914F913F912F9133
S1130A001F910F91FF90EF90DF90CF90BF90AF9028
S1130A109F908F907F906F905F904F903F902F901A
S1130A201F900F900FBE0F9008950F920FB6F89479
S1130A300F921F9211242F923F924F925F926F92C6
S1130A407F928F929F92AF92BF92CF92DF92EF925A
S1130A50FF920F931F932F933F934F935F936F9343
S1130A607F938F939F93AF93BF93CF93DF93EF9332
S1130A70FF93A0919C03B0919D030DB60D920EB609
S1130A800D920E94700D882311F00E94200FA091F6
S1130A909C03B0919D03CD91CDBFDD91DEBFFF914D
S1130AA0EF91DF91CF91BF91AF919F918F917F9102
S1130AB06F915F914F913F912F911F910F91FF90F3
S1130AC0EF90DF90CF90BF90AF909F908F907F90EA
S1130AD06F905F904F903F902F901F900F900FBE9C
S1130AE00F9008950E9415051895EC0180E3688124
S1130AF041E00E94FF0180E368810E946E028FEF53
S1130B0099E6A8E181509040A040E1F700C00000C0
S1130B10F2CFEC0180E3688141E00E94FF0105E02F
S1130B20102F80E368810E946E028FEF99E6A8E19E
S1130B3081509040A040E1F700C00000115089F7B7
S1130B4080EA9FE00E94CD0EEBCF85E795E062E658
S1130B5070E044E650E02BE933E001E0EE24FF24AA
S1130B600E94870A89E895E066E670E044E650E072
S1130B702CE630E002E00E94870A0E94200DFFCF9D
S1130B800FB6F8940F92FC01928D0F900FBE81E086
S1130B90911180E00895FC01448D4423C1F0268125
S1130BA03781240F311D37832683A281B3812A170D
S1130BB03B0720F0208131813783268336812781CA
S1130BC0862F972F632F722F50E00E94E21308950F
S1130BD0EF92FF920F931F93CF938C010FB6F8946B
S1130BE00F92FC01C68D1C16CCF48189882331F444
S1130BF015C0F8018189882341F410C00F2EF1E15A
S1130C00EF2EFF24F02DE00EF11EC7010E94F60F17
S1130C10882311F00E94BB10C15059F78FEFF801DF
S1130C20868F0F900FBE0FB6F8940F92F801C58D02
S1130C301C16C4F48085882331F414C0F80180851F
S1130C40882339F40FC0EE24FF246894E3F8E00EFF
S1130C50F11EC7010E94F60F882311F00E94BB10F9
S1130C60C15061F78FEFF801858F0F900FBECF91C0
S1130C701F910F91FF90EF9008950F931F93CF93BF
S1130C80DF93EC01142F0A8D4C8D442361F4888189
S1130C909981009709F042C08A819B810E942211A8
S1130CA01B821A8242C01123B9F48C819D8150E0C9
S1130CB00E94E2132C8D8C819D81820F911D9D8356
S1130CC08C832A813B818217930750F18881998113
S1130CD09D838C8380E029C08E819F8150E00E9497
S1130CE0E2134C8D50E0509541955F4F8E819F816A
S1130CF0840F951F9F838E832881398182179307E0
S1130D0030F48A819B81840F951F9F838E831230D8
S1130D1049F4002349F0015080E007C080E005C099
S1130D2080E003C080E001C080E00F5F0A8FDF91A4
S1130D30CF911F910F910895CF93DF93EC010FB6DC
S1130D40F8940F92488159812B8D30E0EC8DF0E0BE
S1130D502E9FC0012F9F900D3E9F900D1124840F54
S1130D60951F9B838A831A8E5D834C83C9010197E7
S1130D70E89F9001E99F300DF89F300D1124240F56
S1130D80351F3F832E838FEF8D8F8E8F662361F403
S1130D908885882389F0CE0108960E94F60F88235F
S1130DA059F00E94BC0408C0CE0108960E946B034F
S1130DB0CE0141960E946B030F900FBE81E0DF913C
S1130DC0CF9108950F931F93CF93DF93082F162F7E
S1130DD0662321F0689FC001112402C080E090E0E6
S1130DE04F960E949202EC01009771F0112319F4BE
S1130DF09983888303C04F96998388830B8F1C8FB4
S1130E00CE0161E00E949C068C2F9D2FDF91CF9133
S1130E101F910F9108958F929F92BF92CF92DF926C
S1130E20EF92FF920F931F93CF93DF9300D000D0E4
S1130E300F92CDB7DEB78C014B015D834C83E22E5C
S1130E40FF24BB24B394CC24DD246894C3F8C80ED7
S1130E50D91E0FB6F8940F92F801928D838D9817CE
S1130E6018F0F2E0EF16D1F4C801B4014E2D0E943F
S1130E703D06F8019189992349F0C80141960E94E1
S1130E80F60F882339F00E94BC0404C0882311F0B3
S1130E900E94BC040F900FBE81E052C08C819D81E2
S1130EA0009721F40F900FBE80E04AC0FF2029F480
S1130EB0CE0101960E947B10FB2C0F900FBE0E9466
S1130EC0500D0FB6F8940F92F801858D8F3F09F4F9
S1130ED0158EF801868D8F3F09F4168E0F900FBE84
S1130EE0CE010196BE016C5F7F4F0E94861088235D
S1130EF009F50FB6F8940F92F801928D0F900FBE7A
S1130F00F801838D981781F46C817D81C6010E945C
S1130F10CB0FC8010E94E8050E94150E882309F032
S1130F2098CF0E94BC0495CFC8010E94E8050E9496
S1130F30150E8FCFC8010E94E8050E94150E80E0AF
S1130F400F900F900F900F900F90DF91CF911F9102
S1130F500F91FF90EF90DF90CF90BF909F908F9074
S1130F600895CF93DF93482F81E060E00E94E2066A
S1130F70EC01009761F01B821A82198218821E828A
S1130F8060E070E040E050E020E00E940B078C2F0E
S1130F909D2FDF91CF910895EF92FF920F931F93AE
S1130FA0CF938C017A01FC01928D838D981710F0F8
S1130FB02230F1F4F801C68DC801422F0E943D068B
S1130FC0CF3F89F4F80181898823A1F0C8014196B3
S1130FD00E94F60F882381F0E114F10479F081E096
S1130FE0F70180830CC0CF5FF801C68F81E007C092
S1130FF080E005C081E003C081E001C081E0CF91C1
S11310001F910F91FF90EF900895CF93DF93FC0110
S1131010EB01828D938D8917B8F4968D8F5F828F43
S11310209F3F71F48189882389F0CF0141960E9402
S1131030F60F882369F0209769F081E088830BC05C
S11310409F5F968F81E007C080E005C081E003C008
S113105081E001C081E0DF91CF9108958F929F924A
S1131060AF92BF92CF92DF92EF92FF920F931F93B2
S1131070CF93DF9300D000D00F92CDB7DEB77C01C1
S11310804B015D834C83C22E00E0DD24D3940F2EEC
S1131090F1E1AF2EBB24F02DA80EB91E0FB6F894C3
S11310A00F92F701128D112399F1A680B780C70121
S11310B0B4010E94CB05CC20C9F41150F701128F62
S11310C080819181009729F40E947B11F701938319
S11310D08283F70180858823B9F0C70108960E94AE
S11310E0F60F882389F00E94BC040EC0F701B78272
S11310F0A6828189882341F0C70141960E94F60F98
S1131100882311F00E94BC040F900FBE81E061C0DF
S11311108C819D81009721F40F900FBE80E059C00F
S1131120002329F4CE0101960E947B100D2D0F900F
S11311300FBE0E94500D0FB6F8940F92F701858DE3
S11311408F3F09F4158EF701868D8F3F09F4168EB3
S11311500F900FBECE010196BE016C5F7F4F0E94BF
S11311608610882351F5C7010E94C0058823F9F031
S1131170F70180819181009751F40FB6F8940F9292
S1131180F701828193810E94C4100F900FBE6C817D
S11311907D81C5010E94CB0FC7010E94E8050E9412
S11311A0150E882309F07ACF0E94BC0477CFC701BB
S11311B00E94E8050E94150E71CFC7010E94E80540
S11311C00E94150EC7010E94C005882309F466CF4A
S11311D080E00F900F900F900F900F90DF91CF91C0
S11311E01F910F91FF90EF90DF90CF90BF90AF9041
S11311F09F908F900895EF92FF920F931F93CF9338
S1131200DF938C017A01FC01C28DCC23E9F0D58DEA
S11312100E94CB05C150F801C28FDF3F81F4808565
S11312208823A1F0C80108960E94F60F882381F054
S1131230E114F10479F081E0F70180830CC0DF5FF1
S1131240F801D58F81E007C080E005C081E003C0CC
S113125081E001C081E0DF91CF911F910F91FF9058
S1131260EF9008950F931F93CF93DF93EC018A8D32
S1131270882349F00E811F81CE010E94CB051F8374
S11312800E8381E001C080E0DF91CF911F910F9127
S113129008950FB6F8940F92FC01828D0F900FBE43
S11312A00895FC010FB6F8940F92928D0F900FBE23
S11312B0838D891B0895FC01828D0895FC01928D14
S11312C081E0911180E00895FC01228D81E0938DED
S11312D0291380E00895DC0180910B0490910C04A3
S11312E0009751F0EFE0F4E021E030E0A9018081C3
S11312F09181009779F402C040E050E0FA01EE0FCA
S1131300FF1FEE0FFF1FE55FFB4F71836083B38305
S1131310A28308952F5F3F4F34962830310531F76B
S11313200895AC0180910D0490910E0484179507E3
S113133059F0E1E1F4E021E030E0B90180819181EC
S11313408417950769F402C060E070E0FB01EE0FBA
S1131350FF1FEE0FFF1FE55FFB4F80819181089512
S11313602F5F3F4F34962830310539F780E090E005
S11313700895AC0180910D0490910E048417950793
S113138059F0E1E1F4E021E030E0B901808191819C
S11313908417950779F402C060E070E0FB01EE0F5A
S11313A0FF1FEE0FFF1FE55FFB4F118210821382B8
S11313B0128208952F5F3F4F34962830310529F764
S11313C00895CF93DF93EC010E94B909CE010E94E6
S11313D03203DF91CF910895FC018285938524E047
S11313E08030920761F42489358983E02E3E3807E2
S11313F041F081E02115310529F080E0089580E075
S1131400089580E00895E091AC03F091AD038081EC
S1131410882339F48FEF9FEF9093A00380939F0369
S11314200895E091AC03F091AD030580F681E02DC1
S11314300680F781E02D828193819093A0038093AD
S11314409F030895EF92FF921F93CF93DF93EC01D4
S1131450162FE090A603F090A70380919C0390912F
S11314609D0302960E94CE038FEFCF3FD80769F405
S1131470112359F060919C0370919D036E5F7F4F1F
S113148080E094E00E947D032FC0CE0DDF1DE0912B
S11314909C03F0919D03D383C283CE15DF0568F4CA
S11314A08091AA039091AB0360919C0370919D037A
S11314B06E5F7F4F0E949C0317C08091AC03909194
S11314C0AD0360919C0370919D036E5F7F4F0E94FA
S11314D09C0380919F039091A003C817D90720F41F
S11314E0D093A003C0939F03DF91CF911F91FF90EE
S11314F0EF900895CF93DF93EC018F89988D0E942C
S11315003203CE010E943203DF91CF9108952F92CE
S11315103F924F925F926F927F928F929F92AF927F
S1131520BF92DF92EF92FF920F931F93CF93DF93BB
S11315303C015B01EA012901D02E4701CA010E9446
S113154092027C01009709F4EDC08AE290E00E94C7
S113155092028C01009781F0FC01F08EE78A2197BA
S113156017012C0E3D1EF5018081F801818FF501D4
S11315708081882331F413C0C7010E9432038FEFA6
S1131580D6C0E8016A96D501119681E0FD019D91CE
S113159099939081992319F08F5F8A30B9F7F801F4
S11315A012A2CD2DC53008F0C4E0F801C68BC3A348
S11315B014A2EE24FF246894E1F8E00EF11EC701A2
S11315C00E947903C8010C960E947903F8011187DF
S11315D0008785E090E08C1B910995878487138BA5
S11315E0028B15A216A217A210A611A6C101B3015F
S11315F0A2010E94F603F80191838083811491046F
S113160019F0F401118300830FB6F8940F928091BE
S1131610A8038F5F8093A80380919C0390919D03FE
S1131620009709F03FC010939D0300939C038091A1
S1131630A803813009F047C0C0E0D0E0CE01880F94
S1131640991F880F991F880F991F8C0F9D1F815513
S11316509C4F0E946B032196C530D10579F7CCEDE0
S1131660D3E0CE010E946B030F2EF5EEAF2EF3E014
S1131670BF2EF02DC5010E946B038EEE93E00E94F5
S11316806B0387EF93E00E946B0380E094E00E9479
S11316906B03D093AD03C093AC03B092AB03A092A1
S11316A0AA0311C08091A403882369F4E0919C03E8
S11316B0F0919D039689F8018689891720F010938B
S11316C09D0300939C038091AE038F5F8093AE03D0
S11316D0F80186899091A503981710F48093A503C7
S11316E090E09C01220F331F220F331F220F331F60
S11316F0820F931F81559C4FB7010E947D030F9069
S11317000FBE8091A403882379F0E0919C03F091AB
S11317109D039689F8018689981740F40E94BC04B9
S113172081E005C08FEF03C081E001C081E0DF915B
S1131730CF911F910F91FF90EF90DF90BF90AF90EA
S11317409F908F907F906F905F904F903F902F90DD
S113175008950F931F93CF93DF930FB6F8940F92CE
S1131760009729F4C0919C03D0919D0301C0EC0122
S11317708E010E5F1F4FC8010E94CE038C899D8984
S1131780009721F0CE010C960E94CE038091AE0307
S11317908F5F8093AE0380919C0390919D03C81743
S11317A0D90759F487EF93E0B8010E947D03809133
S11317B0A9038F5F8093A9030AC08091A803815075
S11317C08093A803CE010E947A0A0E94030A0F9014
S11317D00FBE8091A403882349F080919C039091CB
S11317E09D03C817D90711F40E94BC04DF91CF915F
S11317F01F910F9108950FB6F8940F92009729F452
S1131800E0919C03F0919D0301C0FC010F900FBE79
S113181086890895009729F4E0919C03F0919D0333
S113182001C0FC0186890895EF92FF921F93CF9324
S1131830DF93653008F064E00FB6F8940F920097D8
S113184029F4C0919C03D0919D0301C0EC012BA10C
S1131850261709F461C0261788F480919C0390919F
S11318609D03C817D907A1F0E0919C03F0919D0353
S113187011E08689681768F410E00BC080919C031E
S113188090919D0311E0C817D90719F010E001C029
S113189010E08E89281709F46E8B6BA32C853D8587
S11318A0332334F025E030E0261B31093D872C87B3
S11318B090E09C01220F331F220F331F220F331F8E
S11318C0820F931F81559C4F2A853B852817390722
S11318D0F9F4EE24FF246894E1F8EC0EFD1EC70130
S11318E00E94CE038E899091A503981710F48093DB
S11318F0A50390E09C01220F331F220F331F220FF8
S1131900331F820F931F81559C4FB7010E947D03A3
S1131910112311F00E94BC040F900FBEDF91CF91F0
S11319201F91FF90EF9008950F931F93CF93DF9330
S1131930EC010097B9F180919C0390919D03C81725
S1131940D90781F10FB6F8940F92CE010E94EC09E9
S1131950882331F18E010E5F1F4FC8010E94CE0310
S11319608E899091A503981710F48093A50390E0B5
S11319709C01220F331F220F331F220F331F820FAC
S1131980931F81559C4FB8010E947D03E0919C03F5
S1131990F0919D039E898689981710F00E94BC04DB
S11319A00F900FBEDF91CF911F910F910895EF9289
S11319B0FF921F93CF93DF93EC010E94EC098823DD
S11319C0B9F180919E03882351F5E0919C03F09135
S11319D09D0311E09E898689981708F410E0EE248F
S11319E0FF246894E1F8EC0EFD1EC7010E94CE03AB
S11319F08E899091A503981710F48093A50390E025
S1131A009C01220F331F220F331F220F331F820F1B
S1131A10931F81559C4FB7010E947D030AC0BE01EC
S1131A20645F7F4F8EEE93E00E947D0310E001C05F
S1131A3010E0812FDF91CF911F91FF90EF900895D7
S1131A40EF92FF920F9385E99EE06DE670E048EC1B
S1131A5050E020E030E000E00F2EF9E0EF2EF4E05B
S1131A60FF2EF02D0E94870A813081F4F8948FEFC5
S1131A709FEF9093A00380939F0381E08093A4033E
S1131A801092A7031092A6030E9486040F91FF9060
S1131A90EF900895F8941092A4030E94BB04089553
S1131AA080919E038F5F80939E0308950FB6F894F0
S1131AB00F928091A6039091A7030F900FBE0895F3
S1131AC08091A6039091A70308958091A803089597
S1131AD0009721F480919C0390919D034996089569
S1131AE0CF92DF92EF92FF920F931F93CF93DF93E6
S1131AF080919E03882309F082C0C090A603D090F1
S1131B00A7030894C11CD11CD092A703C092A603BA
S1131B10C114D104B9F48091AC039091AD03209128
S1131B20AA033091AB033093AD032093AC0390939D
S1131B30AB038093AA038091A1038F5F8093A103D9
S1131B400E94030A80919F039091A003C816D906AE
S1131B5020F4FF245AC0FE2C03C0FF24EE24E39497
S1131B60E091AC03F091AD038081882339F48FEFC9
S1131B709FEF9093A00380939F0347C0E091AC0331
S1131B80F091AD030580F681E02DC681D7818A816D
S1131B909B81C816D90628F49093A00380939F03D1
S1131BA034C08E010E5F1F4FC8010E94CE038C8982
S1131BB09D89009721F0CE010C960E94CE038E8958
S1131BC09091A503981710F48093A50390E09C01CD
S1131BD0220F331F220F331F220F331F820F931F35
S1131BE081559C4FB8010E947D03E0919C03F091C4
S1131BF09D039E898689981708F0ADCFB1CF809157
S1131C00A3038F5F8093A303FF248091A2038823FF
S1131C1011F0FF24F3948F2DDF91CF911F910F9139
S1131C20FF90EF90DF90CF900895DF92EF92FF92B4
S1131C300F931F93CF93DF930FB6F8940F92809175
S1131C409E03815080939E0380919E03882309F014
S1131C505FC08091A803882391F55DC0E091F303F0
S1131C60F091F403C681D781CE010C960E94CE0375
S1131C708E010E5F1F4FC8010E94CE038E89909182
S1131C80A503981710F48093A50390E09C01220FFC
S1131C90331F220F331F220F331F820F931F8155CF
S1131CA09C4FB8010E947D03E0919C03F0919D0339
S1131CB09E898689981768F0D092A2030AC0C0E072
S1131CC0D0E00F2EFEEEEF2EF3E0FF2EF02DDD24FC
S1131CD0D394F7018081882309F6209711F00E949C
S1131CE0030AC091A303CC2359F001E00E94700DB4
S1131CF0882311F00093A203C150C1F71092A303EB
S1131D008091A203882331F00E94BC0481E003C0C7
S1131D1080E001C080E00F900FBEDF91CF911F9152
S1131D200F91FF90EF90DF90089507EF13E00F2ECF
S1131D30FFEAEF2EF3E0FF2EF02D24C00E94500D99
S1131D40F801C0810E94150ECC23E1F00FB6F8947F
S1131D500F92E091FC03F091FD03C681D781CE017F
S1131D6002960E94CE038091A80381508093A80319
S1131D708091A90381508093A9030F900FBECE01D7
S1131D800E947A0A8091A9038823C1F6F701808111
S1131D908230C0F30E94BC04F5CFCF93DF93EC01F3
S1131DA0009751F00E94500DCE0160E00E94220A7B
S1131DB00E94150E882311F40E94BC04DF91CF9178
S1131DC008950F931F93CF93DF938C01EB010E942F
S1131DD0500D8091A6039091A703F80120813181D1
S1131DE0C20FD31F8217930748F4C217D307F8F41E
S1131DF0D183C0838C179D0778F407C0C217D3071B
S1131E0090F08C179D0778F012C09E01281B390BA7
S1131E10C90160E00E94220A0E94150E882359F429
S1131E200E94BC0408C0F801D183C083EECFF8013E
S1131E30D183C083F1CFDF91CF911F910F9108958A
S1131E4080919E03882321F081E08093A20308956A
S1131E501092A2032091A503822F90E0FC01EE0FC3
S1131E60FF1FEE0FFF1FEE0FFF1FE80FF91FE155D5
S1131E70FC4F3081332389F42150822F90E0FC0100
S1131E80EE0FFF1FEE0FFF1FEE0FFF1FE80FF91FEE
S1131E90E155FC4F3081332379F3DC01AA0FBB1FDA
S1131EA0AA0FBB1FAA0FBB1F8A0F9B1FDC01A155E2
S1131EB0BC4F1196ED91FC9112970280F381E02DB5
S1131EC01296FC93EE931197CD010396E817F90748
S1131ED031F48281938112969C938E93119711967B
S1131EE0ED91FC9112978681978190939D03809345
S1131EF09C032093A50308950F931F93CF93DF931F
S1131F000FB6F8940F92009729F400919C03109156
S1131F109D0301C08C01E8012296CE010E94CE03EC
S1131F20F80184899589009721F0C8010C960E94D4
S1131F30CE0380E094E0BE010E947D030F900FBEAB
S1131F408091A403882339F00FB6F8940F920E946D
S1131F50030A0F900FBE80919C0390919D03081774
S1131F601907A1F48091A403882319F00E94BC04EA
S1131F700DC08091A80390910004981729F4109241
S1131F809D0310929C0302C00E94200FDF91CF9109
S1131F901F910F910895CF93DF93EB0160919C0300
S1131FA070919D03645F7F4F0E949C03CE0161E0AA
S1131FB00E94220ADF91CF910895CF93DF93EA0123
S1131FC0E0919C03F0919D0370687587648760912C
S1131FD09C0370919D03645F7F4F0E947D03CE013B
S1131FE061E00E94220ADF91CF9108950F931F931D
S1131FF0CF93DF93DC011596ED91FC911697068142
S11320001781E8012C96CE010E94CE0380919E0395
S11320108823E9F4E8012296CE010E94CE03F80158
S113202086899091A503981710F48093A50390E0F6
S11320309C01220F331F220F331F220F331F820FE5
S1132040931F81559C4FBE010E947D0305C08EEEF7
S113205093E0BE010E947D03E0919C03F0919D03F7
S1132060D80156969C9156978689891720F481E069
S11320708093A20301C080E0DF91CF911F910F9163
S113208008950F931F93CF93DF937068FC017183BE
S11320906083C681D7810E94CE038E010E5F1F4FDD
S11320A0C8010E94CE038E899091A503981710F45D
S11320B08093A50390E09C01220F331F220F331F4E
S11320C0220F331F820F931F81559C4FB8010E942A
S11320D07D03E0919C03F0919D039E898689891775
S11320E020F481E08093A20301C080E0DF91CF91CE
S11320F01F910F910895FC018091A1038083809129
S1132100A6039091A703928381830895FC01DB01C8
S11321100FB6F8940F926091A6037091A7034D91A6
S11321205C9111978FEF4F3F5807E9F08091A1031D
S11321309081981729F08181928168177907A8F412
S1132140818192819B01281B390B2417350778F470
S1132150861B970B840F951F8D939C93CF010E9430
S11321607B1080E005C080E003C081E001C081E015
S11321700F900FBE089581E08093A203089580918B
S11321809C0390919D0308950F931F93CF93DF9326
S1132190EC01009709F451C08E89E0919C03F09101
S11321A09D039689891708F048C02C853D85332303
S11321B05CF0E0919C03F0919D03968925E030E06A
S11321C0291B31093D872C8790E09C01220F331F86
S11321D0220F331F220F331F820F931F81559C4FF1
S11321E02A853B852817390711F58E010E5F1F4F8D
S11321F0C8010E94CE03E0919C03F0919D0386895F
S11322008E8B9091A503981710F48093A50390E00A
S11322109C01220F331F220F331F220F331F820F03
S1132220931F81559C4FB8010E947D0306C0E09125
S11322309C03F0919D0386898E8BDF91CF911F9132
S11322400F9108950F931F93CF93DF93EC010097A1
S113225081F18CA181508CA32E899BA1291759F15E
S1132260882359F58E010E5F1F4FC8010E94CE03CB
S11322704BA14E8B242F30E085E090E0821B930B22
S11322809D878C878091A503841710F44093A50340
S1132290C901880F991F880F991F880F991F280F4C
S11322A0391FC90181559C4FB8010E947D0381E00B
S11322B005C080E003C080E001C080E0DF91CF91E1
S11322C01F910F910895E0919C03F0919D038485E3
S11322D09585E0919C03F0919D03A0919C03B0919E
S11322E09D0356964C91569725E030E0241B310906
S11322F035872487089580919C0390919D030097CE
S113230039F0E0919C03F0919D0384A18F5F84A335
S113231080919C0390919D0308950F931F93CF93F5
S1132320C82F0FB6F8940F92E0919C03F0919D038F
S113233085A196A1A7A1B0A50097A105B10579F43F
S1132340E0919C03F0919D0381E081A761157105E3
S113235031F0CB0161E00E94220A0E94BC040F907C
S11323600FBE0FB6F8940F92E0919C03F0919D0379
S113237005A116A127A130A50115110521053105D7
S1132380C1F0CC2349F0E0919C03F0919D0315A288
S113239016A217A210A60DC0E0919C03F0919D0314
S11323A0D901C8010197A109B10985A396A3A7A3DF
S11323B0B0A7E0919C03F0919D0311A60F900FBE6E
S11323C0602F712F822F932FCF911F910F9108951A
S11323D08F929F92AF92BF92EF92FF920F931F93AF
S11323E0DC01CB0149015A010FB6F8940F92E09138
S11323F09C03F0919D0321A5223019F1E0919C03E7
S1132400F0919D0345A156A167A170A58095909573
S1132410A095B09584239523A623B72385A396A3DB
S1132420A7A3B0A7E0919C03F0919D0381E081A74D
S1132430E114F10431F0C70161E00E94220A0E9414
S1132440BC040F900FBE0FB6F8940F92011511053E
S113245069F0E0919C03F0919D0385A196A1A7A149
S1132460B0A5F80180839183A283B383E0919C0398
S1132470F0919D0381A58130B1F0E0919C03F0912E
S11324809D0385A196A1A7A1B0A580949094A09442
S1132490B09488229922AA22BB2285A296A2A7A23E
S11324A0B0A681E001C080E0E0919C03F0919D031F
S11324B011A60F900FBE1F910F91FF90EF90BF9048
S11324C0AF909F908F9008950F931F93CF93DF93B6
S11324D0EC010FB6F8940F920115110549F08DA186
S11324E09EA1AFA1B8A5F80180839183A283B38391
S11324F039A582E089A72230B9F0233018F42130BD
S113250051F505C02330E1F0243029F51EC08DA11A
S11325109EA1AFA1B8A5482B592B6A2B7B2B4DA3A9
S11325205EA36FA378A717C08DA19EA1AFA1B8A584
S11325300196A11DB11D8DA39EA3AFA3B8A70BC087
S11325404DA35EA36FA378A706C0323071F14DA3EB
S11325505EA36FA378A7313051F58E010E5F1F4F34
S1132560C8010E94CE038E899091A503981710F498
S11325708093A50390E09C01220F331F220F331F89
S1132580220F331F820F931F81559C4FB8010E9465
S11325907D03E0919C03F0919D039E8986898917B0
S11325A040F40E94BC0481E005C080E003C081E0E7
S11325B001C081E00F900FBEDF91CF911F910F9169
S11325C00895EF92FF920F931F93CF93DF93EC0143
S11325D00115110549F08DA19EA1AFA1B8A5F8017F
S11325E080839183A283B38339A582E089A72230B3
S11325F0B9F0233018F4213059F505C02330E1F047
S1132600243031F51EC08DA19EA1AFA1B8A5842BA5
S1132610952BA62BB72B8DA39EA3AFA3B8A718C049
S11326208DA19EA1AFA1B8A50196A11DB11D8DA339
S11326309EA3AFA3B8A70CC04DA35EA36FA378A7B6
S113264007C0323009F441C04DA35EA36FA378A73D
S11326503130E9F580919E038823E9F48E010E5F01
S11326601F4FC8010E94CE038E899091A50398172D
S113267010F48093A50390E09C01220F331F220FD6
S1132680331F220F331F820F931F81559C4FB801B4
S11326900E947D0307C0BE01645F7F4F8EEE93E00E
S11326A00E947D03E0919C03F0919D039E8986899D
S11326B0891778F4E114F10421F081E0F7018083B3
S11326C009C081E08093A20305C080E003C081E0DB
S11326D001C081E0DF91CF911F910F91FF90EF90A6
S11326E00895EF92FF920F931F93CF93DF93EC0122
S11326F08B0129A582E089A78DA19EA1AFA1B8A5D0
S11327000196A11DB11D8DA39EA3AFA3B8A721302F
S1132710E9F580919E03882301F5EE24FF24689453
S1132720E1F8EC0EFD1EC7010E94CE038E89909144
S1132730A503981710F48093A50390E09C01220F41
S1132740331F220F331F220F331F820F931F815514
S11327509C4FB7010E947D0307C0BE01645F7F4F99
S11327608EEE93E00E947D03E0919C03F0919D0323
S11327709E898689891750F40115110521F081E09D
S1132780F801808303C081E08093A203DF91CF919D
S11327901F910F91FF90EF900895009729F4E09115
S11327A09C03F0919D0301C0FC010FB6F8940F92B5
S11327B081A5823019F411A681E001C080E00F9058
S11327C00FBE0895FB01DC0102C001900D9241503F
S10D27D05040D8F70895F894FFCFA5
S11327DA1F03416C69004D6F727379000149444CBF
S10527EA4500A4
S9030000FC
