:100000000C942A000C9447000C9447000C94470071
:100010000C9447000C9447000C9447000C94470044
:100020000C9447000C9447000C9447000C94470034
:100030000C9447000C9447000C9447000C94470024
:100040000C9447000C9447000C9447000C94470014
:100050000C94470011241FBECFE5D8E0DEBFCDBF12
:1000600010E0A0E6B0E0E6E9F6E002C005900D92EF
:10007000A037B107D9F710E0A0E7B0E001C01D92AA
:10008000A037B107E1F70E9466010C9449030C9474
:100090000000613029F4E82FF0E08FEF81830895AC
:1000A000662319F4E82FF0E011820895413079F4C5
:1000B000E82FF0E0218181E090E0AC0102C0440F24
:1000C000551F6A95E2F7BA01622B618308954423B4
:1000D00079F4E82FF0E0218181E090E0AC0102C0EA
:1000E000440F551F6A95E2F7BA0160956223618358
:1000F0000895E82FF0E062830895413079F4E82F05
:10010000F0E0228181E090E0AC0102C0440F551F75
:100110006A95E2F7BA01622B62830895442379F469
:10012000E82FF0E0228181E090E0AC0102C0440FB2
:10013000551F6A95E2F7BA016095622362830895BC
:10014000CF93DF930F92CDB7DEB7E82FF0E0808139
:10015000898389810F90DF91CF910895CF93DF93A9
:100160000F92CDB7DEB7E82FF0E0808190E09C01E0
:1001700002C0359527956A95E2F7B90161706983E8
:1001800089810F90DF91CF910895E82FF0E02281CF
:1001900081E090E0AC0102C0440F551F6A95E2F780
:1001A000BA01622762830895E82FF0E082818F70A0
:1001B000828382816295607F682762830895E82F39
:1001C000F0E08281807F828382816F706827628302
:1001D00008950F931F93CF93DF93EC018A3091051D
:1001E00070F480E30E94C70180E30E94C70180E3AE
:1001F0000E94C7018C2F805D0E94C70162C08436B7
:100200009105A8F480E30E94C70180E30E94C70122
:10021000CE016AE070E00E943503C82F862F805D12
:100220000E94C7018C2F805D0E94C7014AC083E0F5
:10023000C83ED807F8F480E30E94C701CE0164E607
:1002400070E00E943503862F805D0E94C7012AE07E
:1002500030E0CE01B9010E943503C82FCB01B901AE
:100260000E943503805D0E94C7018C2F805D0E9433
:10027000C70127C0CE0168EE73E00E943503862FC8
:10028000805D0E94C701CE0164E670E00E943503E4
:10029000CB010AE010E0B8010E943503805D0E94A6
:1002A000C701CE01B8010E943503C82FCB01B801A8
:1002B0000E943503805D0E94C7018C2F805D0E94E3
:1002C000C701DF91CF911F910F9108950E947C0289
:1002D0008CE00E94290280E690E00E941A0281E0F0
:1002E0006AE00E94DF0284E690E00E941A0282E047
:1002F00061E00E94DF0288E690E00E941A0282E03C
:100300006AE00E94DF028CE690E00E941A020E94DE
:100310001A0380E00E942203EC0181E064E00E9465
:10032000DF02CE010E94E90081E00E942203EC017D
:1003300081E06DE00E94DF02CE010E94E90082E0D0
:100340000E942203EC0182E064E00E94DF02CE0101
:100350000E94E90083E00E942203EC0182E06DE04C
:100360000E94DF02CE010E94E900D3CF80E361E06A
:1003700041E00E947D008FE99FE00197F1F700C006
:10038000000080E361E040E00E947D000895CF938B
:10039000C82F482F42954F70417083E364E00E945C
:1003A0007D004C2F429546954770417083E365E090
:1003B0000E947D004C2F42954695469543704170B2
:1003C00083E366E00E947D004C2F441F4427441FB6
:1003D00083E367E00E947D0080E360E041E00E94EB
:1003E0007D000E94B6014C2F417083E364E00E94BF
:1003F0007D004C2F4695417083E365E00E947D00AF
:100400004C2F46954695417083E366E00E947D003F
:10041000C695C695C6954C2F417083E367E00E9450
:100420007D0080E360E041E00E947D000E94B60113
:10043000CF910895CF93DF93EC018881882331F029
:1004400021960E94C70189918823D9F7DF91CF9126
:100450000895CF93C82F482F42954F70417083E382
:1004600064E00E947D004C2F429546954770417094
:1004700083E365E00E947D004C2F429546954695AA
:100480004370417083E366E00E947D004C2F441F5F
:100490004427441F83E367E00E947D0080E360E01F
:1004A00040E00E947D000E94B6014C2F417083E322
:1004B00064E00E947D004C2F4695417083E365E027
:1004C0000E947D004C2F46954695417083E366E07F
:1004D0000E947D00C695C695C6954C2F417083E35A
:1004E00067E00E947D0080E360E040E00E947D00C4
:1004F0000E94B601CF9108958FEF91EEA4E0815054
:100500009040A040E1F700C0000083E364E041E0D8
:100510000E94560083E365E041E00E94560083E3B9
:1005200066E041E00E94560083E367E041E00E94FC
:10053000560080E361E041E00E94560080E360E005
:1005400041E00E94560080E362E041E00E945600D4
:1005500080E362E040E00E947D0082E00E94290288
:10056000AFE1BEE41197F1F700C0000088E20E94FD
:1005700029028FEC97E00197F1F700C000008EE0B0
:100580000E942902AFECB7E01197F1F700C000001C
:1005900081E00E9429028FE19EE40197F1F700C0FB
:1005A000000080E00E942902AFECB7E01197F1F75C
:1005B00000C00000089581E00E9429020895CF93B1
:1005C000DF930F92CDB7DEB7813019F4615869839C
:1005D0000EC0823019F46154698309C081508230A1
:1005E00020F4613110F4662311F480E88983898155
:1005F0000E9429028FEC97E00197F1F700C00000FC
:100600000F90DF91CF9108950F931F93CF938C019B
:10061000FC018081882351F0C0E00E94C701CF5FB8
:10062000F801EC0FF11D80818823B9F7CF911F915C
:100630000F9108953E983F983D98379A3898319A8F
:10064000329A089597B1907E97B997B1892B87B95F
:10065000369A86B184FFFDCF349A84B190E045B1DB
:10066000342F20E0822B932B0895AA1BBB1B51E152
:1006700007C0AA1FBB1FA617B70710F0A61BB70B12
:10068000881F991F5A95A9F780959095BC01CD01B7
:060690000895F894FFCF6D
:1006960041313D0041323D0041333D0041343D0092
:00000001FF
