:100000000C942A000C9447000C9447000C94470071
:100010000C9447000C9447000C9447000C94470044
:100020000C9447000C9447000C9447000C94470034
:100030000C9447000C9447000C9447000C94470024
:100040000C9447000C9447000C9447000C94470014
:100050000C94470011241FBECFE5D8E0DEBFCDBF12
:1000600010E0A0E6B0E0EEE4F4E002C005900D92EE
:10007000A036B107D9F710E0A0E6B0E001C01D92AC
:10008000A036B107E1F70E94E9000C9425020C9418
:100090000000613029F4E82FF0E08FEF81830895AC
:1000A000662319F4E82FF0E011820895413079F4C5
:1000B000E82FF0E0218181E090E0AC0102C0440F24
:1000C000551F6A95E2F7BA01622B618308954423B4
:1000D00079F4E82FF0E0218181E090E0AC0102C0EA
:1000E000440F551F6A95E2F7BA0160956223618358
:1000F0000895E82FF0E062830895413079F4E82F05
:10010000F0E0228181E090E0AC0102C0440F551F75
:100110006A95E2F7BA01622B62830895442379F469
:10012000E82FF0E0228181E090E0AC0102C0440FB2
:10013000551F6A95E2F7BA016095622362830895BC
:10014000CF93DF930F92CDB7DEB7E82FF0E0808139
:10015000898389810F90DF91CF910895CF93DF93A9
:100160000F92CDB7DEB7E82FF0E0808190E09C01E0
:1001700002C0359527956A95E2F7B90161706983E8
:1001800089810F90DF91CF910895E82FF0E02281CF
:1001900081E090E0AC0102C0440F551F6A95E2F780
:1001A000BA01622762830895E82FF0E082818F70A0
:1001B000828382816295607F682762830895E82F39
:1001C000F0E08281807F828382816F706827628302
:1001D000089589E360E041E00E94560089E361E010
:1001E00041E00E94560089E362E041E00E9456002F
:1001F00089E363E041E00E94560089E360E040E06B
:100200000E947D0089E361E040E00E947D0089E377
:1002100062E040E00E947D0089E363E040E00E94EC
:100220007D0080E30E949A010E94A5018823E1F7E6
:100230000E94E601C82F482F417089E360E00E94C8
:100240007D004C2F4695417089E361E00E947D005E
:100250004C2F46954695417089E362E00E947D00EF
:10026000C695C695C6954C2F417089E363E00E9400
:100270007D00DACF60E970E080E090E020E030E0DF
:10028000A9010E94030220B908980998089584EAF8
:1002900086BF06B607FEFDCF81B1089583B984E815
:1002A00086BF06B607FEFDCF81B1887F883119F081
:1002B000803221F402C091E001C090E0892F0895BE
:1002C00083B984E886BF06B607FEFDCF81B10895E5
:1002D00094EA96BF06B607FEFDCF91B1987F9031A4
:1002E00071F483B984E886BF06B607FEFDCF81B1FD
:1002F000887F803431F0883431F482E0089580E0E2
:10030000089581E0089583E0089584EC86BF06B6E1
:1003100007FEFDCF83B1089584E886BF06B607FEC9
:10032000FDCF83B1089586B7806186BF86B784FD0F
:10033000FDCF089582B986B7846086BF86B7806492
:1003400086BF86B7806886BF089586B7806886BFF7
:1003500006B607FEFDCF81B1887F803661F0883612
:1003600061F0883A61F0803B61F0803761F0883756
:1003700061F782E0089580E0089580E0089581E0CB
:10038000089581E0089582E0089583B986B7806872
:1003900086BF06B607FEFDCF81B1887F803A29F47B
:1003A00086B7806886BF8FEF0895883B59F0803C00
:1003B00029F486B7806886BF8EEF0895883C21F4C3
:1003C0008DEF089580E008958CEF089586B78068DA
:1003D00086BF06B607FEFDCF81B1887F803811F059
:1003E000803911F483B10895883811F0883911F4F7
:1003F00083B10895803A29F486B7806886BF8FEF6D
:1004000008958EEF0895A1E21A2EAA1BBB1BFD01D1
:100410000DC0AA1FBB1FEE1FFF1FA217B307E407E3
:10042000F50720F0A21BB30BE40BF50B661F771F3B
:10043000881F991F1A9469F760957095809590951B
:0E0440009B01AC01BD01CF010895F894FFCFE0
:00000001FF
