S0150000547261666669635F4C696768742E73726563F9
S11300000C942A000C9447000C9447000C9447006D
S11300100C9447000C9447000C9447000C94470040
S11300200C9447000C9447000C943C030C94470038
S11300300C9447000C9447000C9447000C94470020
S11300400C9447000C9447000C9447000C94470010
S11300500C94470011241FBECFE5D8E0DEBFCDBF0E
S113006010E0A0E6B0E0ECEDF6E002C005900D92E1
S1130070AE37B107D9F710E0AEE7B0E001C01D928A
S1130080A038B107E1F70E9473020C946C030C943E
S11300900000613029F4E82FF0E08FEF81830895A8
S11300A0662319F4E82FF0E011820895413079F4C1
S11300B0E82FF0E0218181E090E0AC0102C0440F20
S11300C0551F6A95E2F7BA01622B618308954423B0
S11300D079F4E82FF0E0218181E090E0AC0102C0E6
S11300E0440F551F6A95E2F7BA0160956223618354
S11300F00895E82FF0E062830895413079F4E82F01
S1130100F0E0228181E090E0AC0102C0440F551F71
S11301106A95E2F7BA01622B62830895442379F465
S1130120E82FF0E0228181E090E0AC0102C0440FAE
S1130130551F6A95E2F7BA016095622362830895B8
S1130140CF93DF930F92CDB7DEB7E82FF0E0808135
S1130150898389810F90DF91CF910895CF93DF93A5
S11301600F92CDB7DEB7E82FF0E0808190E09C01DC
S113017002C0359527956A95E2F7B90161706983E4
S113018089810F90DF91CF910895E82FF0E02281CB
S113019081E090E0AC0102C0440F551F6A95E2F77C
S11301A0BA01622762830895E82FF0E082818F709C
S11301B0828382816295607F682762830895E82F35
S11301C0F0E08281807F828382816F7068276283FE
S11301D0089541E00E945600089541E00E947D0088
S11301E0089540E00E947D0008950E94C50008958E
S11301F00E94AE00089589E365E041E00E947D001D
S11302008FE99FE00197F1F700C0000089E365E002
S113021040E00E947D000895CF93C82F482F429557
S11302204F70417089E360E00E947D004C2F42953D
S113023046954770417089E361E00E947D004C2F30
S11302404295469546954370417089E362E00E9469
S11302507D004C2F441F4427441F89E363E00E9420
S11302607D0089E364E041E00E947D000E94FB0080
S11302704C2F417089E360E00E947D004C2F46952D
S1130280417089E361E00E947D004C2F46954695BC
S1130290417089E362E00E947D00C695C695C695CB
S11302A04C2F417089E363E00E947D0089E364E0A0
S11302B041E00E947D000E94FB00CF910895CF93FE
S11302C0DF93EC018881882331F021960E940C0190
S11302D089918823D9F7DF91CF910895CF93C82FBF
S11302E0482F42954F70417089E360E00E947D0081
S11302F04C2F429546954770417089E361E00E9416
S11303007D004C2F4295469546954370417089E394
S113031062E00E947D004C2F441F4427441F89E360
S113032063E00E947D0089E364E040E00E947D0078
S11303300E94FB004C2F417089E360E00E947D0025
S11303404C2F4695417089E361E00E947D004C2F5B
S113035046954695417089E362E00E947D00C6950A
S1130360C695C6954C2F417089E363E00E947D00D9
S113037089E364E040E00E947D000E94FB00CF918D
S113038008958FEF91EEA4E081509040A040E1F7F2
S113039000C0000089E360E041E00E94560089E368
S11303A061E041E00E94560089E362E041E00E947E
S11303B0560089E363E041E00E94560089E365E06A
S11303C041E00E94560089E364E041E00E94560047
S11303D089E366E041E00E94560089E366E040E07C
S11303E00E947D0082E00E946E01AFE1BEE411979D
S11303F0F1F700C0000088E20E946E018FEC97E0E4
S11304000197F1F700C000008EE00E946E01AFEC8E
S1130410B7E01197F1F700C0000081E00E946E017F
S11304208FE19EE40197F1F700C0000080E00E9494
S11304306E01AFECB7E01197F1F700C0000008952A
S113044081E00E946E010895CF93DF930F92CDB7A0
S1130450DEB7813019F4615869830EC0823019F413
S11304606154698309C08150823020F4613110F4F1
S1130470662311F480E8898389810E946E018FECE0
S113048097E00197F1F700C000000F90DF91CF9142
S113049008950F931F93CF938C01FC0180818823CF
S11304A051F0C0E00E940C01CF5FF801EC0FF11D88
S11304B080818823B9F7CF911F910F91089593B745
S11304C09F7B93BF93B7986093BF93B7987F93BF75
S11304D093B7956093BF8CBF89B7826089BF8FB78C
S11304E080688FBF089580E360E00E94E90080E3A4
S11304F061E00E94E90080E362E00E94E9000E945A
S1130500C1018CE00E946E0180E690E00E945F01D0
S11305108FEF91EEA4E081509040A040E1F700C03D
S113052000000E9420028EE690E00E945F0182E0BB
S113053064E00E94240283E70E940C0180E50E948B
S11305405F020AE0CAE0D4E019E028C080E362E078
S11305500E94ED0080E361E00E94F10080E360E02E
S11305600E94F10080917E0090917F008436910575
S1130570A8F082E061E00E942402802F6C2F0E9488
S11305805303F92E805D0E940C018F2D805D0E9423
S11305900C01015010927F0010927E000023B4F6EB
S11305A082E061E00E94240280E30E940C0185E362
S11305B00E940C010D2F80E362E00E94F10080E3B1
S11305C061E00E94ED0080E360E00E94F100809110
S11305D07E0090917F008436910568F382E061E0AB
S11305E00E942402802F6C2F0E945303F92E805DF9
S11305F00E940C018F2D805D0E940C01015010920D
S11306007F0010927E000023B4F682E061E00E9435
S1130610240281E30E940C0180E30E940C01012F5B
S113062080E362E00E94F10080E361E00E94F10057
S113063080E360E00E94ED0080917E0090917F0055
S11306408436910568F382E061E00E942402802FE1
S11306506C2F0E945303F92E805D0E940C018F2D94
S1130660805D0E940C01015010927F0010927E0068
S11306700023B4F60C2F92CF1F920F920FB60F9255
S113068011248F939F9380917E0090917F00019617
S113069090937F0080937E009F918F910F900FBE67
S11306A00F901F90189587FB082E062687FD8195CD
S11306B067FD619505D00EF4919507FC8195089529
S11306C0991B79E004C0991F961708F0961B881FA0
S10F06D07A95C9F780950895F894FFCF3F
S11306DC54726166666963204C696768740052657C
S11106EC6D61696E696E672054696D653A0030
S9030000FC
