:100000000C942A000C9447000C9447000C94470071
:100010000C9447000C9447000C9447000C94470044
:100020000C9447000C9447000C9447000C94470034
:100030000C9447000C9447000C9447000C94470024
:100040000C9447000C9447000C9447000C94470014
:100050000C94470011241FBECFE5D8E0DEBFCDBF12
:1000600010E0A0E6B0E0E0E4F5E002C005900D92FB
:10007000A036B107D9F710E0A0E6B0E001C01D92AC
:10008000A036B107E1F70E9492020C949E020C94F4
:100090000000613029F4E82FF0E08FEF81830895AC
:1000A000662319F4E82FF0E011820895413079F4C5
:1000B000E82FF0E0218181E090E0AC0102C0440F24
:1000C000551F6A95E2F7BA01622B618308954423B4
:1000D00079F4E82FF0E0218181E090E0AC0102C0EA
:1000E000440F551F6A95E2F7BA0160956223618358
:1000F0000895E82FF0E062830895413079F4E82F05
:10010000F0E0228181E090E0AC0102C0440F551F75
:100110006A95E2F7BA01622B62830895442379F469
:10012000E82FF0E0228181E090E0AC0102C0440FB2
:10013000551F6A95E2F7BA016095622362830895BC
:10014000CF93DF930F92CDB7DEB7E82FF0E0808139
:10015000898389810F90DF91CF910895CF93DF93A9
:100160000F92CDB7DEB7E82FF0E0808190E09C01E0
:1001700002C0359527956A95E2F7B90161706983E8
:1001800089810F90DF91CF910895E82FF0E02281CF
:1001900081E090E0AC0102C0440F551F6A95E2F780
:1001A000BA01622762830895E82FF0E082818F70A0
:1001B000828382816295607F682762830895E82F39
:1001C000F0E08281807F828382816F706827628302
:1001D000089586E365E041E00E94560086E367E00B
:1001E00041E00E94560086E364E041E00E94560030
:1001F0008DB181658DB986E364E041E00E947D00A8
:10020000089586E366E041E00E9456006E9A0895E4
:100210001F93CF93DF930F92CDB7DEB7182F86E3EE
:1002200064E040E00E947D001FB9779BFECF8FB154
:10023000898389810F90DF91CF911F910895CF938A
:10024000DF930F92CDB7DEB78FB9779BFECF8FB11B
:10025000898389810F90DF91CF91089589E365E0CB
:1002600041E00E947D008FE99FE00197F1F700C017
:10027000000089E365E040E00E947D000895CF938F
:10028000C82F482F42954F70417089E360E00E946B
:100290007D004C2F429546954770417089E361E09F
:1002A0000E947D004C2F42954695469543704170C3
:1002B00089E362E00E947D004C2F441F4427441FC5
:1002C00089E363E00E947D0089E364E041E00E94ED
:1002D0007D000E942E014C2F417089E360E00E9456
:1002E0007D004C2F4695417089E361E00E947D00BE
:1002F0004C2F46954695417089E362E00E947D004F
:10030000C695C695C6954C2F417089E363E00E945F
:100310007D0089E364E041E00E947D000E942E019F
:10032000CF910895CF93DF93EC018881882331F03A
:1003300021960E943F0189918823D9F7DF91CF91BF
:100340000895CF93C82F482F42954F70417089E38D
:1003500060E00E947D004C2F4295469547704170A9
:1003600089E361E00E947D004C2F429546954695B9
:100370004370417089E362E00E947D004C2F441F6E
:100380004427441F89E363E00E947D0089E364E021
:1003900040E00E947D000E942E014C2F417089E3B5
:1003A00060E00E947D004C2F4695417089E361E03A
:1003B0000E947D004C2F46954695417089E362E08E
:1003C0000E947D00C695C695C6954C2F417089E365
:1003D00063E00E947D0089E364E040E00E947D00CC
:1003E0000E942E01CF9108958FEF91EEA4E08150ED
:1003F0009040A040E1F700C0000089E360E041E0E8
:100400000E94560089E361E041E00E94560089E3C2
:1004100062E041E00E94560089E363E041E00E940F
:10042000560089E365E041E00E94560089E364E0FC
:1004300041E00E94560089E366E041E00E945600D8
:1004400089E366E040E00E947D0082E00E94A10115
:10045000AFE1BEE41197F1F700C0000088E20E940E
:10046000A1018FEC97E00197F1F700C000008EE04A
:100470000E94A101AFECB7E01197F1F700C00000B6
:1004800081E00E94A1018FE19EE40197F1F700C095
:10049000000080E00E94A101AFECB7E01197F1F7F6
:1004A00000C00000089581E00E94A1010895CF934B
:1004B000DF930F92CDB7DEB7813019F461586983AD
:1004C0000EC0823019F46154698309C081508230B2
:1004D00020F4613110F4662311F480E88983898166
:1004E0000E94A1018FEC97E00197F1F700C0000096
:1004F0000F90DF91CF9108950F931F93CF938C01AD
:10050000FC018081882351F0C0E00E943F01CF5F51
:10051000F801EC0FF11D80818823B9F7CF911F916D
:100520000F9108950E94F4010E940101CFEF8C2FDA
:100530000E941F01C82F0E943F01F9CFF894FFCFFE
:00000001FF
