:100000000C942A000C9447000C9447000C94470071
:100010000C9447000C9447000C9447000C94C305C3
:100020000C9447000C9447000C9447000C94470034
:100030000C9447000C9447000C9447000C94470024
:100040000C9447000C9447000C9447000C94470014
:100050000C94470011241FBECFE5D8E0DEBFCDBF12
:1000600010E0A0E6B0E0E6EEF7E202C005900D92E7
:10007000A237B107D9F714E0A2E7B0E001C01D92A2
:10008000AC32B107E1F70E942C040C94F1130C94EC
:100090000000442341F46823792381E06115710550
:1000A00051F480E008959B012823392381E06217F1
:1000B000730709F080E00895CF93DF938BE090E021
:1000C0000E949202EC01009731F0FC011192119212
:1000D000CF010E946B038C2F9D2FDF91CF9108954C
:1000E000AF92BF92CF92DF92EF92FF920F931F9346
:1000F000CF93DF935C016B01E42EF22E0E94560D2C
:10010000F501C081D181CE01B6014F2D0E94490079
:10011000882351F0EE2001F1C094D094CC22DD224E
:10012000F501D182C08218C001151105A9F0EE2099
:1001300019F460E070E002C060E071E0F1107460FA
:100140006C297D29C5010296A8010E94E30F0E9437
:100150001B0E882339F404C00E941B0ECE0121C05F
:100160000E940D050E946911EC0191FD18C00FB6A7
:10017000F8940F92F501C081D181CE01B6014F2DC7
:100180000E944900882349F0EE2039F0C094D094B1
:10019000CC22DD22F501D182C0820F900FBECE01AC
:1001A0009070DF91CF911F910F91FF90EF90DF90B2
:1001B000CF90BF90AF900895FC010FB6F8940F92C6
:1001C0008081918160957095682379237183608324
:1001D0000F900FBE0895FC01808191810895AF9228
:1001E000BF92CF92DF92EF92FF920F931F93CF9324
:1001F000DF938C01EB010F2EF5E0CF2EDD24F02DE7
:10020000C80ED91E0E94560DD8011796ED91FC918B
:1002100018978D919C9111978C2B9D2B11969C93E7
:100220008E93CE16DF06C1F1AA24BB24FF24F394DB
:10023000EE2401C0FE01C281D38180819181BC0185
:1002400060709C01307092FD0BC0D8018D919C9123
:100250001197822393234F2D009769F44E2D0BC0E5
:10026000D8018D919C911197822393234F2D2817AC
:10027000390709F04E2D442359F070FF02C0A22A1D
:10028000B32AD8016D917C917260CF010E94471012
:10029000CC16DD0679F602C0AA24BB24C5018095E0
:1002A0009095F801A080B180A822B922B182A082E5
:1002B0000E941B0ED8018C9111969C911197DF9191
:1002C000CF911F910F91FF90EF90DF90CF90BF9053
:1002D000AF900895AF92BF92CF92DF92EF92FF92CC
:1002E0000F931F93CF93DF936C01EB017A015901B8
:1002F0000E94560DF60100811181C601BE010E94C7
:10030000EF00C02BD12BC7018C239D238E159F0599
:1003100051F480959095F6012081318182239323B9
:100320009183808312C0A114B10461F0B70175609C
:10033000C6010296A5010E94E30F0E941B0E8823AE
:1003400049F406C0F601C081D1810E941B0E1CC079
:100350000E940D050E94691191FD14C00FB6F8941A
:100360000F92F601808191819701282339232E1560
:100370003F0531F42095309528233923318320839C
:100380000F900FBEEC01D0708C2F9D2FDF91CF917D
:100390001F910F91FF90EF90DF90CF90BF90AF90A3
:1003A0000895CF93DF93EC010E94560D8A81882334
:1003B00049F08F81988560E072E00E9447108A8141
:1003C0008823B9F7CE010E9432030E941B0EDF91F1
:1003D000CF910895BA010E94EF000895BA010E94DA
:1003E000DC000895613029F4E82FF0E08FEF81837D
:1003F0000895662319F4E82FF0E011820895413042
:1004000079F4E82FF0E0218181E090E0AC0102C0B6
:10041000440F551F6A95E2F7BA01622B6183089574
:10042000442379F4E82FF0E0218181E090E0AC01F1
:1004300002C0440F551F6A95E2F7BA016095622326
:1004400061830895E82FF0E062830895413079F4E4
:10045000E82FF0E0228181E090E0AC0102C0440F7F
:10046000551F6A95E2F7BA01622B6283089544230F
:1004700079F4E82FF0E0228181E090E0AC0102C045
:10048000440F551F6A95E2F7BA01609562236283B3
:100490000895CF93DF930F92CDB7DEB7E82FF0E04A
:1004A0008081898389810F90DF91CF910895CF93C7
:1004B000DF930F92CDB7DEB7E82FF0E0808190E0B8
:1004C0009C0102C0359527956A95E2F7B9016170E4
:1004D000698389810F90DF91CF910895E82FF0E033
:1004E000228181E090E0AC0102C0440F551F6A9563
:1004F000E2F7BA01622762830895E82FF0E0828173
:100500008F70828382816295607F682762830895FD
:10051000E82FF0E08281807F828382816F7068277C
:10052000628308950F931F93CF93DF93EC010E9492
:10053000560D809172008823F9F48CE790E0909337
:1005400074008093730010927600109275008FE112
:1005500093E090937A0080937900E9E7F0E01292BB
:10056000129290937F0080937E00F0937D00E09341
:100570007C0081E080937200209709F462C09E01A4
:100580002C5F3F4F239683E0CE31D80708F05CC044
:10059000E0917300F0917400A3E7B0E002C0DF01C6
:1005A000FC01828193818217930720F480819181DD
:1005B0000097A9F7C0E0E737FC0709F448C08D9120
:1005C0009C9111978C010C5F1F4F80819181119636
:1005D0009C938E9382819381821B930B893091052A
:1005E00018F1AF01420F531FDA0113969C938E93BB
:1005F00012973383228312962D913C91139763E7D0
:1006000070E001C0BD01EB01A881B98112968D9106
:100610009C91139782179307A8F3EA01B983A883E3
:10062000DB0111965C934E93809160009091610084
:1006300022813381821B930B909361008093600031
:1006400008C000E010E005C000E010E002C000E0DB
:1006500010E00E941B0E802F912FDF91CF911F91F0
:100660000F9108950F931F93CF93DF93EC010097A1
:1006700039F18C01045010400E94560DF80122817E
:100680003381A3E7B0E001C0DF01ED91FC91119748
:100690008281938182179307B8F32497F983E883C3
:1006A0000D931C9380916000909161002A813B81A1
:1006B000820F931F90936100809360000E941B0E35
:1006C000DF91CF911F910F910895809160009091DB
:1006D000610008950895FC010396928381832FEFB2
:1006E0003FEF3483238396838583908787831082AB
:1006F0000895FC01118610860895CF93DF93FB01C6
:10070000DC011196CD91DC911297D383C2832C81A9
:100710003D8135832483AC81BD8113967C936E9398
:1007200012977D836C8391878087FC0120812F5FE6
:100730002083DF91CF910895CF93DF93AC01EB013C
:10074000288139818FEF2F3F380721F4FA01A781E3
:10075000B0850DC0DA01139601C0DF011296ED914C
:10076000FC9113978081918128173907B0F7129671
:10077000ED91FC911397FB83EA83D583C483BD83FA
:10078000AC831396DC93CE93129759874887FA016E
:1007900080818F5F8083DF91CF910895CF93DF9326
:1007A000FC01C085D185A281B38184819581159694
:1007B0009C938E931497A481B58182819381139623
:1007C0009C938E931297A981BA81AE17BF0731F41B
:1007D00014968D919C9115979A8389831186108622
:1007E000888181508883DF91CF9108950FB6F89466
:1007F0000F9280919C038F5F80939C038FEF91EE0B
:10080000A4E081509040A040E1F700C0000080913A
:100810009B038F5F80939B030F900FBE8FEF91EE32
:10082000A4E081509040A040E1F700C00000DECF7E
:1008300080E360E041E00E94FF0190919C03809181
:100840009B03981721F480E360E00E946E0284E627
:1008500090E00E94D30EF1CF88E194E062E670E070
:1008600044E650E020E030E002E0EE24FF240E9465
:100870008D0A86EF93E066E670E044E650E020E003
:1008800030E001E00E948D0A0E94260DFFCF21E199
:10089000FC012083319732E23083FC013297A3E3DD
:1008A000A083FC0133976083FC0134977083FC01C3
:1008B00035971082FC01369760E86083FC0137971A
:1008C0001082FC01389762E06083FC01399763E095
:1008D0006083FC013A9764E06083FC013B9765E02C
:1008E0006083FC013C9766E06083FC013D9767E014
:1008F0006083FC013E9768E06083FC013F9769E0FC
:100900006083FC01709760E16083FC017197208334
:10091000FC01729722E12083FC01739723E120837D
:10092000FC01749724E12083FC01759725E1208365
:10093000FC01769726E12083FC01779727E120834D
:10094000FC01789728E12083FC01799729E1208335
:10095000FC017A9720E22083FC017B9721E220832F
:10096000FC017C973083FC017D9723E22083FC010E
:100970007E974083FC017F975083FC01B09726E26D
:100980002083FC01B19727E22083FC01B29728E283
:100990002083FC01B39729E22083FC01B49720E374
:1009A0002083FC01B59721E32083869708951BBC23
:1009B0008CE78ABD8BE08EBD89B7806189BFA0912D
:1009C0009D03B0919E03CD91CDBFDD91DEBFFF9120
:1009D000EF91DF91CF91BF91AF919F918F917F91D7
:1009E0006F915F914F913F912F911F910F91FF90C8
:1009F000EF90DF90CF90BF90AF909F908F907F90BF
:100A00006F905F904F903F902F901F900F900FBE70
:100A10000F90089581E0089508950F920FB6F8940D
:100A20000F921F9211242F923F924F925F926F92DA
:100A30007F928F929F92AF92BF92CF92DF92EF926E
:100A4000FF920F931F932F933F934F935F936F9357
:100A50007F938F939F93AF93BF93CF93DF93EF9346
:100A6000FF93A0919D03B0919E030DB60D920EB61B
:100A70000D920E94260FA0919D03B0919E03CD91EF
:100A8000CDBFDD91DEBFFF91EF91DF91CF91BF919F
:100A9000AF919F918F917F916F915F914F913F9116
:100AA0002F911F910F91FF90EF90DF90CF90BF900B
:100AB000AF909F908F907F906F905F904F903F90FE
:100AC0002F901F900F900FBE0F9008950F920FB6AA
:100AD000F8940F921F9211242F923F924F925F929F
:100AE0006F927F928F929F92AF92BF92CF92DF923E
:100AF000EF92FF920F931F932F933F934F935F9328
:100B00006F937F938F939F93AF93BF93CF93DF9315
:100B1000EF93FF93A0919D03B0919E030DB60D92AC
:100B20000EB60D920E94760D882311F00E94260FBA
:100B3000A0919D03B0919E03CD91CDBFDD91DEBF0D
:100B4000FF91EF91DF91CF91BF91AF919F918F91E5
:100B50007F916F915F914F913F912F911F910F91D5
:100B6000FF90EF90DF90CF90BF90AF909F908F90CD
:100B70007F906F905F904F903F902F901F900F90BD
:100B80000FBE0F9008950E94660518950FB6F89451
:100B90000F92FC01928D0F900FBE81E0911180E0C9
:100BA0000895FC01448D4423C1F026813781240F30
:100BB000311D37832683A281B3812A173B0720F09A
:100BC000208131813783268336812781862F972F95
:100BD000632F722F50E00E94E8130895EF92FF9266
:100BE0000F931F93CF938C010FB6F8940F92FC01D3
:100BF000C68D1C16CCF48189882331F415C0F80108
:100C00008189882341F410C00F2EF1E1EF2EFF24DB
:100C1000F02DE00EF11EC7010E94FC0F882311F099
:100C20000E94C110C15059F78FEFF801868F0F90C5
:100C30000FBE0FB6F8940F92F801C58D1C16C4F4C0
:100C40008085882331F414C0F8018085882339F425
:100C50000FC0EE24FF246894E3F8E00EF11EC701F4
:100C60000E94FC0F882311F00E94C110C15061F74F
:100C70008FEFF801858F0F900FBECF911F910F91CD
:100C8000FF90EF9008950F931F93CF93DF93EC01A4
:100C9000142F0A8D4C8D442361F48881998100972B
:100CA00009F042C08A819B810E9428111B821A820E
:100CB00042C01123B9F48C819D8150E00E94E81359
:100CC0002C8D8C819D81820F911D9D838C832A8127
:100CD0003B818217930750F1888199819D838C8392
:100CE00080E029C08E819F8150E00E94E8134C8DE6
:100CF00050E0509541955F4F8E819F81840F951FE5
:100D00009F838E83288139818217930730F48A81EB
:100D10009B81840F951F9F838E83123049F400239B
:100D200049F0015080E007C080E005C080E003C0CA
:100D300080E001C080E00F5F0A8FDF91CF911F91AB
:100D40000F910895CF93DF93EC010FB6F8940F92B3
:100D5000488159812B8D30E0EC8DF0E02E9FC00151
:100D60002F9F900D3E9F900D1124840F951F9B8304
:100D70008A831A8E5D834C83C9010197E89F900195
:100D8000E99F300DF89F300D1124240F351F3F834C
:100D90002E838FEF8D8F8E8F662361F48885882355
:100DA00089F0CE0108960E94FC0F882359F00E941A
:100DB0000D0508C0CE0108960E946B03CE01419636
:100DC0000E946B030F900FBE81E0DF91CF910895D9
:100DD0000F931F93CF93DF93082F162F662321F0D5
:100DE000689FC001112402C080E090E04F960E94ED
:100DF0009202EC01009771F0112319F49983888312
:100E000003C04F96998388830B8F1C8FCE0161E0BE
:100E10000E94A2068C2F9D2FDF91CF911F910F91E1
:100E200008958F929F92BF92CF92DF92EF92FF929E
:100E30000F931F93CF93DF9300D000D00F92CDB7C5
:100E4000DEB78C014B015D834C83E22EFF24BB2473
:100E5000B394CC24DD246894C3F8C80ED91E0FB611
:100E6000F8940F92F801928D838D981718F0F2E0A4
:100E7000EF16D1F4C801B4014E2D0E944306F801CB
:100E80009189992349F0C80141960E94FC0F88235B
:100E900039F00E940D0504C0882311F00E940D0551
:100EA0000F900FBE81E052C08C819D81009721F48C
:100EB0000F900FBE80E04AC0FF2029F4CE010196BA
:100EC0000E948110FB2C0F900FBE0E94560D0FB692
:100ED000F8940F92F801858D8F3F09F4158EF80173
:100EE000868D8F3F09F4168E0F900FBECE010196AE
:100EF000BE016C5F7F4F0E948C10882309F50FB6EE
:100F0000F8940F92F801928D0F900FBEF801838D27
:100F1000981781F46C817D81C6010E94D10FC801B0
:100F20000E94EE050E941B0E882309F098CF0E94B4
:100F30000D0595CFC8010E94EE050E941B0E8FCFB4
:100F4000C8010E94EE050E941B0E80E00F900F90DA
:100F50000F900F900F90DF91CF911F910F91FF9005
:100F6000EF90DF90CF90BF909F908F900895CF9398
:100F7000DF93482F81E060E00E94E806EC010097D3
:100F800061F01B821A82198218821E8260E070E072
:100F900040E050E020E00E9411078C2F9D2FDF9150
:100FA000CF910895EF92FF920F931F93CF938C01EF
:100FB0007A01FC01928D838D981710F02230F1F4A4
:100FC000F801C68DC801422F0E944306CF3F89F425
:100FD000F80181898823A1F0C80141960E94FC0F85
:100FE000882381F0E114F10479F081E0F701808336
:100FF0000CC0CF5FF801C68F81E007C080E005C05C
:1010000081E003C081E001C081E0CF911F910F9189
:10101000FF90EF900895CF93DF93FC01EB01828D59
:10102000938D8917B8F4968D8F5F828F9F3F71F4EF
:101030008189882389F0CF0141960E94FC0F882383
:1010400069F0209769F081E088830BC09F5F968FDD
:1010500081E007C080E005C081E003C081E001C0FD
:1010600081E0DF91CF9108958F929F92AF92BF92CE
:10107000CF92DF92EF92FF920F931F93CF93DF9364
:1010800000D000D00F92CDB7DEB77C014B015D835D
:101090004C83C22E00E0DD24D3940F2EF1E1AF2E5D
:1010A000BB24F02DA80EB91E0FB6F8940F92F701CD
:1010B000128D112399F1A680B780C701B4010E9457
:1010C000D105CC20C9F41150F701128F8081918194
:1010D000009729F40E948111F70193838283F7011D
:1010E00080858823B9F0C70108960E94FC0F8823E9
:1010F00089F00E940D050EC0F701B782A682818992
:10110000882341F0C70141960E94FC0F882311F00B
:101110000E940D050F900FBE81E061C08C819D8102
:10112000009721F40F900FBE80E059C0002329F4EE
:10113000CE0101960E9481100D2D0F900FBE0E94CE
:10114000560D0FB6F8940F92F701858D8F3F09F475
:10115000158EF701868D8F3F09F4168E0F900FBE06
:10116000CE010196BE016C5F7F4F0E948C108823D8
:1011700051F5C7010E94C6058823F9F0F701808167
:101180009181009751F40FB6F8940F92F701828184
:1011900093810E94CA100F900FBE6C817D81C501A2
:1011A0000E94D10FC7010E94EE050E941B0E8823EA
:1011B00009F07ACF0E940D0577CFC7010E94EE0596
:1011C0000E941B0E71CFC7010E94EE050E941B0EEC
:1011D000C7010E94C605882309F466CF80E00F90FE
:1011E0000F900F900F900F90DF91CF911F910F9163
:1011F000FF90EF90DF90CF90BF90AF909F908F9037
:101200000895EF92FF920F931F93CF93DF938C017A
:101210007A01FC01C28DCC23E9F0D58D0E94D10565
:10122000C150F801C28FDF3F81F480858823A1F08F
:10123000C80108960E94FC0F882381F0E114F10494
:1012400079F081E0F70180830CC0DF5FF801D58F72
:1012500081E007C080E005C081E003C081E001C0FB
:1012600081E0DF91CF911F910F91FF90EF90089552
:101270000F931F93CF93DF93EC018A8D882349F05E
:101280000E811F81CE010E94D1051F830E8381E054
:1012900001C080E0DF91CF911F910F9108950FB6AB
:1012A000F8940F92FC01828D0F900FBE0895FC01FF
:1012B0000FB6F8940F92928D0F900FBE838D891BFD
:1012C0000895FC01828D0895FC01928D81E09111B9
:1012D00080E00895FC01228D81E0938D291380E048
:1012E0000895DC0180910C0490910D04009751F059
:1012F000E0E1F4E021E030E0A901808191810097F4
:1013000079F402C040E050E0FA01EE0FFF1FEE0F4B
:10131000FF1FE45FFB4F71836083B383A283089553
:101320002F5F3F4F34962830310531F70895AC01D7
:1013300080910E0490910F048417950759F0E2E113
:10134000F4E021E030E0B9018081918184179507B4
:1013500069F402C060E070E0FB01EE0FFF1FEE0FCA
:10136000FF1FE45FFB4F8081918108952F5F3F4F06
:1013700034962830310539F780E090E00895AC01CB
:1013800080910E0490910F048417950759F0E2E1C3
:10139000F4E021E030E0B901808191818417950764
:1013A00079F402C060E070E0FB01EE0FFF1FEE0F6A
:1013B000FF1FE45FFB4F1182108213821282089597
:1013C0002F5F3F4F34962830310529F70895CF938A
:1013D000DF93EC010E94BF09CE010E943203DF912E
:1013E000CF910895FC018285938524E08130920796
:1013F00061F42489358983E02F3E380741F081E08C
:101400002115310529F080E0089580E0089580E0FD
:101410000895E091AD03F091AE038081882339F403
:101420008FEF9FEF9093A1038093A0030895E09125
:10143000AD03F091AE030580F681E02D0680F781C3
:10144000E02D828193819093A1038093A00308955E
:10145000EF92FF921F93CF93DF93EC01162FE09052
:10146000A703F090A80380919D0390919E0302969C
:101470000E94CE038FEFCF3FD80769F4112359F0B4
:1014800060919D0370919E036E5F7F4F81E094E0B9
:101490000E947D032FC0CE0DDF1DE0919D03F091D2
:1014A0009E03D383C283CE15DF0568F48091AB031E
:1014B0009091AC0360919D0370919E036E5F7F4F8E
:1014C0000E949C0317C08091AD039091AE03609180
:1014D0009D0370919E036E5F7F4F0E949C038091DD
:1014E000A0039091A103C817D90720F4D093A103BA
:1014F000C093A003DF91CF911F91FF90EF900895CB
:10150000CF93DF93EC018F89988D0E943203CE0137
:101510000E943203DF91CF9108952F923F924F9214
:101520005F926F927F928F929F92AF92BF92DF9263
:10153000EF92FF920F931F93CF93DF933C015B01D8
:10154000EA012901D02E4701CA010E9492027C01C2
:10155000009709F4EDC08AE290E00E9492028C01AB
:10156000009781F0FC01F08EE78A219717012C0E7D
:101570003D1EF5018081F801818FF501808188236E
:1015800031F413C0C7010E9432038FEFD6C0E801C7
:101590006A96D501119681E0FD019D919993908104
:1015A000992319F08F5F8A30B9F7F80112A2CD2D77
:1015B000C53008F0C4E0F801C68BC3A314A2EE2422
:1015C000FF246894E1F8E00EF11EC7010E94790340
:1015D000C8010C960E947903F8011187008785E005
:1015E00090E08C1B910995878487138B028B15A241
:1015F00016A217A210A611A6C101B301A2010E9452
:101600004704F801918380838114910419F0F40157
:10161000118300830FB6F8940F928091A9038F5F16
:101620008093A90380919D0390919E03009709F0F8
:101630003FC010939E0300939D038091A9038130C6
:1016400009F047C0C0E0D0E0CE01880F991F880F95
:10165000991F880F991F8C0F9D1F80559C4F0E94CA
:101660006B032196C530D10579F7CDEDD3E0CE01DE
:101670000E946B030F2EF6EEAF2EF3E0BF2EF02D7F
:10168000C5010E946B038FEE93E00E946B0388EF0D
:1016900093E00E946B0381E094E00E946B03D0937F
:1016A000AE03C093AD03B092AC03A092AB0311C0E4
:1016B0008091A503882369F4E0919D03F0919E0336
:1016C0009689F8018689891720F010939E0300936C
:1016D0009D038091AF038F5F8093AF03F8018689EC
:1016E0009091A603981710F48093A60390E09C01B4
:1016F000220F331F220F331F220F331F820F931F1E
:1017000080559C4FB7010E947D030F900FBE8091C2
:10171000A503882379F0E0919D03F0919E039689BB
:10172000F8018689981740F40E940D0581E005C0F4
:101730008FEF03C081E001C081E0DF91CF911F9165
:101740000F91FF90EF90DF90BF90AF909F908F90A0
:101750007F906F905F904F903F902F9008950F93E0
:101760001F93CF93DF930FB6F8940F92009729F44D
:10177000C0919D03D0919E0301C0EC018E010E5FCC
:101780001F4FC8010E94CE038C899D89009721F0CC
:10179000CE010C960E94CE038091AF038F5F8093A1
:1017A000AF0380919D0390919E03C817D90759F408
:1017B00088EF93E0B8010E947D038091AA038F5FB8
:1017C0008093AA030AC08091A90381508093A90342
:1017D000CE010E94800A0E94090A0F900FBE8091DC
:1017E000A503882349F080919D0390919E03C8171B
:1017F000D90711F40E940D05DF91CF911F910F9130
:1018000008950FB6F8940F92009729F4E0919D0384
:10181000F0919E0301C0FC010F900FBE86890895D0
:10182000009729F4E0919D03F0919E0301C0FC0113
:1018300086890895EF92FF921F93CF93DF936530CF
:1018400008F064E00FB6F8940F92009729F4C09165
:101850009D03D0919E0301C0EC012BA1261709F432
:1018600061C0261788F480919D0390919E03C8174C
:10187000D907A1F0E0919D03F0919E0311E08689C4
:10188000681768F410E00BC080919D0390919E034F
:1018900011E0C817D90719F010E001C010E08E89D7
:1018A000281709F46E8B6BA32C853D85332334F008
:1018B00025E030E0261B31093D872C8790E09C0114
:1018C000220F331F220F331F220F331F820F931F4C
:1018D00080559C4F2A853B8528173907F9F4EE245B
:1018E000FF246894E1F8EC0EFD1EC7010E94CE03B0
:1018F0008E899091A603981710F48093A60390E028
:101900009C01220F331F220F331F220F331F820F20
:10191000931F80559C4FB7010E947D03112311F046
:101920000E940D050F900FBEDF91CF911F91FF9088
:10193000EF9008950F931F93CF93DF93EC010097DF
:10194000B9F180919D0390919E03C817D90781F149
:101950000FB6F8940F92CE010E94F209882331F15C
:101960008E010E5F1F4FC8010E94CE038E89909199
:10197000A603981710F48093A60390E09C01220F11
:10198000331F220F331F220F331F820F931F8055E7
:101990009C4FB8010E947D03E0919D03F0919E034E
:1019A0009E898689981710F00E940D050F900FBE32
:1019B000DF91CF911F910F910895EF92FF921F93A6
:1019C000CF93DF93EC010E94F2098823B9F1809153
:1019D0009F03882351F5E0919D03F0919E0311E050
:1019E0009E898689981708F410E0EE24FF246894F5
:1019F000E1F8EC0EFD1EC7010E94CE038E89909186
:101A0000A603981710F48093A60390E09C01220F80
:101A1000331F220F331F220F331F820F931F805556
:101A20009C4FB7010E947D030AC0BE01645F7F4FD7
:101A30008FEE93E00E947D0310E001C010E0812F43
:101A4000DF91CF911F91FF90EF900895EF92FF9259
:101A50000F938BE99EE06CE670E048EC50E020E0EC
:101A600030E000E00F2EFAE0EF2EF4E0FF2EF02D34
:101A70000E948D0A813081F4F8948FEF9FEF90934C
:101A8000A1038093A00381E08093A5031092A80393
:101A90001092A7030E94D7040F91FF90EF90089532
:101AA000F8941092A5030E940C05089580919F035D
:101AB0008F5F80939F0308950FB6F8940F928091E3
:101AC000A7039091A8030F900FBE08958091A703DC
:101AD0009091A80308958091A9030895009721F497
:101AE00080919D0390919E0349960895CF92DF9235
:101AF000EF92FF920F931F93CF93DF9380919F03F9
:101B0000882309F082C0C090A703D090A80308944E
:101B1000C11CD11CD092A803C092A703C114D10448
:101B2000B9F48091AD039091AE032091AB03309155
:101B3000AC033093AE032093AD039093AC0380933A
:101B4000AB038091A2038F5F8093A2030E94090AD6
:101B50008091A0039091A103C816D90620F4FF2418
:101B60005AC0FE2C03C0FF24EE24E394E091AD03A1
:101B7000F091AE038081882339F48FEF9FEF90932B
:101B8000A1038093A00347C0E091AD03F091AE03A1
:101B90000580F681E02DC681D7818A819B81C81698
:101BA000D90628F49093A1038093A00334C08E013A
:101BB0000E5F1F4FC8010E94CE038C899D8900973C
:101BC00021F0CE010C960E94CE038E899091A6033F
:101BD000981710F48093A60390E09C01220F331F06
:101BE000220F331F220F331F820F931F80559C4FEC
:101BF000B8010E947D03E0919D03F0919E039E89B0
:101C00008689981708F0ADCFB1CF8091A4038F5F7C
:101C10008093A403FF248091A303882311F0FF2461
:101C2000F3948F2DDF91CF911F910F91FF90EF9043
:101C3000DF90CF900895DF92EF92FF920F931F9362
:101C4000CF93DF930FB6F8940F9280919F0381504A
:101C500080939F0380919F03882309F05FC0809148
:101C6000A903882391F55DC0E091F403F091F50399
:101C7000C681D781CE010C960E94CE038E010E5FE5
:101C80001F4FC8010E94CE038E899091A60398171A
:101C900010F48093A60390E09C01220F331F220FC3
:101CA000331F220F331F820F931F80559C4FB801A3
:101CB0000E947D03E0919D03F0919E039E89868999
:101CC000981768F0D092A3030AC0C0E0D0E00F2EAE
:101CD000FFEEEF2EF3E0FF2EF02DDD24D394F7017D
:101CE0008081882309F6209711F00E94090AC0918B
:101CF000A403CC2359F001E00E94760D882311F053
:101D00000093A303C150C1F71092A4038091A303D1
:101D1000882331F00E940D0581E003C080E001C0FE
:101D200080E00F900FBEDF91CF911F910F91FF9038
:101D3000EF90DF90089508EF13E00F2EF0EBEF2EF9
:101D4000F3E0FF2EF02D24C00E94560DF801C08153
:101D50000E941B0ECC23E1F00FB6F8940F92E09195
:101D6000FD03F091FE03C681D781CE0102960E9449
:101D7000CE038091A90381508093A9038091AA0387
:101D800081508093AA030F900FBECE010E94800A5B
:101D90008091AA038823C1F6F70180818230C0F3C5
:101DA0000E940D05F5CFCF93DF93EC01009751F022
:101DB0000E94560DCE0160E00E94280A0E941B0E70
:101DC000882311F40E940D05DF91CF9108950F93A0
:101DD0001F93CF93DF938C01EB010E94560D8091EE
:101DE000A7039091A803F80120813181C20FD31F6E
:101DF0008217930748F4C217D307F8F4D183C0833E
:101E00008C179D0778F407C0C217D30790F08C1782
:101E10009D0778F012C09E01281B390BC90160E0B4
:101E20000E94280A0E941B0E882359F40E940D0567
:101E300008C0F801D183C083EECFF801D183C083FD
:101E4000F1CFDF91CF911F910F91089580919F0362
:101E5000882321F081E08093A30308951092A303C7
:101E60002091A603822F90E0FC01EE0FFF1FEE0FE2
:101E7000FF1FEE0FFF1FE80FF91FE055FC4F3081E9
:101E8000332389F42150822F90E0FC01EE0FFF1FD5
:101E9000EE0FFF1FEE0FFF1FE80FF91FE055FC4F7D
:101EA0003081332379F3DC01AA0FBB1FAA0FBB1FBC
:101EB000AA0FBB1F8A0F9B1FDC01A055BC4F1196B8
:101EC000ED91FC9112970280F381E02D1296FC9324
:101ED000EE931197CD010396E817F90731F482814B
:101EE000938112969C938E9311971196ED91FC918C
:101EF00012978681978190939E0380939D032093F0
:101F0000A60308950F931F93CF93DF930FB6F89412
:101F10000F92009729F400919D0310919E0301C038
:101F20008C01E8012296CE010E94CE03F80184893B
:101F30009589009721F0C8010C960E94CE0381E09C
:101F400094E0BE010E947D030F900FBE8091A50317
:101F5000882339F00FB6F8940F920E94090A0F9067
:101F60000FBE80919D0390919E0308171907A1F45D
:101F70008091A503882319F00E940D050DC0809162
:101F8000A90390910104981729F410929E031092CE
:101F90009D0302C00E94260FDF91CF911F910F91E8
:101FA0000895CF93DF93EB0160919D0370919E03A1
:101FB000645F7F4F0E949C03CE0161E00E94280A6B
:101FC000DF91CF910895CF93DF93EA01E0919D03D4
:101FD000F0919E0370687587648760919D0370918E
:101FE0009E03645F7F4F0E947D03CE0161E00E94EB
:101FF000280ADF91CF9108950F931F93CF93DF931A
:10200000DC011596ED91FC91169706811781E80188
:102010002C96CE010E94CE0380919F038823E9F481
:10202000E8012296CE010E94CE03F80186899091A4
:10203000A603981710F48093A60390E09C01220F4A
:10204000331F220F331F220F331F820F931F805520
:102050009C4FBE010E947D0305C08FEE93E0BE0140
:102060000E947D03E0919D03F0919E03D801569656
:102070009C9156978689891720F481E08093A30369
:1020800001C080E0DF91CF911F910F9108950F93D0
:102090001F93CF93DF937068FC0171836083C681C7
:1020A000D7810E94CE038E010E5F1F4FC8010E9490
:1020B000CE038E899091A603981710F48093A603FF
:1020C00090E09C01220F331F220F331F220F331F7A
:1020D000820F931F80559C4FB8010E947D03E091B1
:1020E0009D03F0919E039E898689891720F481E0E3
:1020F0008093A30301C080E0DF91CF911F910F91E6
:102100000895FC018091A20380838091A7039091A0
:10211000A803928381830895FC01DB010FB6F89434
:102120000F926091A7037091A8034D915C91119754
:102130008FEF4F3F5807E9F08091A20390819817E5
:1021400029F08181928168177907A8F481819281B1
:102150009B01281B390B2417350778F4861B970B36
:10216000840F951F8D939C93CF010E94811080E076
:1021700005C080E003C081E001C081E00F900FBE88
:10218000089581E08093A303089580919D03909129
:102190009E0308950F931F93CF93DF93EC01009755
:1021A00009F451C08E89E0919D03F0919E039689B8
:1021B000891708F048C02C853D8533235CF0E091F9
:1021C0009D03F0919E03968925E030E0291B31099B
:1021D0003D872C8790E09C01220F331F220F331F75
:1021E000220F331F820F931F80559C4F2A853B85FA
:1021F0002817390711F58E010E5F1F4FC8010E9485
:10220000CE03E0919D03F0919E0386898E8B909181
:10221000A603981710F48093A60390E09C01220F68
:10222000331F220F331F220F331F820F931F80553E
:102230009C4FB8010E947D0306C0E0919D03F09180
:102240009E0386898E8BDF91CF911F910F91089508
:102250000F931F93CF93DF93EC01009781F18CA133
:1022600081508CA32E899BA1291759F1882359F5F8
:102270008E010E5F1F4FC8010E94CE034BA14E8BF3
:10228000242F30E085E090E0821B930B9D878C87A4
:102290008091A603841710F44093A603C901880F08
:1022A000991F880F991F880F991F280F391FC9017F
:1022B00080559C4FB8010E947D0381E005C080E0FD
:1022C00003C080E001C080E0DF91CF911F910F91AA
:1022D0000895E0919D03F0919E0384859585E0919A
:1022E0009D03F0919E03A0919D03B0919E0356968D
:1022F0004C91569725E030E0241B3109358724871F
:10230000089580919D0390919E03009739F0E0918C
:102310009D03F0919E0384A18F5F84A380919D0310
:1023200090919E0308950F931F93CF93C82F0FB6DC
:10233000F8940F92E0919D03F0919E0385A196A1E0
:10234000A7A1B0A50097A105B10579F4E0919D037F
:10235000F0919E0381E081A76115710531F0CB01F9
:1023600061E00E94280A0E940D050F900FBE0FB673
:10237000F8940F92E0919D03F0919E0305A116A1A0
:1023800027A130A50115110521053105C1F0CC2388
:1023900049F0E0919D03F0919E0315A216A217A2A9
:1023A00010A60DC0E0919D03F0919E03D901C801D4
:1023B0000197A109B10985A396A3A7A3B0A7E091AE
:1023C0009D03F0919E0311A60F900FBE602F712FF9
:1023D000822F932FCF911F910F9108958F929F92EB
:1023E000AF92BF92EF92FF920F931F93DC01CB014C
:1023F00049015A010FB6F8940F92E0919D03F091B4
:102400009E0321A5223019F1E0919D03F0919E03D6
:1024100045A156A167A170A580959095A095B0950E
:1024200084239523A623B72385A396A3A7A3B0A7A8
:10243000E0919D03F0919E0381E081A7E114F104F6
:1024400031F0C70161E00E94280A0E940D050F903B
:102450000FBE0FB6F8940F920115110569F0E091C7
:102460009D03F0919E0385A196A1A7A1B0A5F801B7
:1024700080839183A283B383E0919D03F0919E03B7
:1024800081A58130B1F0E0919D03F0919E0385A17B
:1024900096A1A7A1B0A580949094A094B09488220E
:1024A0009922AA22BB2285A296A2A7A2B0A681E069
:1024B00001C080E0E0919D03F0919E0311A60F9072
:1024C0000FBE1F910F91FF90EF90BF90AF909F9024
:1024D0008F9008950F931F93CF93DF93EC010FB666
:1024E000F8940F920115110549F08DA19EA1AFA19D
:1024F000B8A5F80180839183A283B38339A582E0D4
:1025000089A72230B9F0233018F4213051F505C0E5
:102510002330E1F0243029F51EC08DA19EA1AFA18A
:10252000B8A5482B592B6A2B7B2B4DA35EA36FA319
:1025300078A717C08DA19EA1AFA1B8A50196A11D36
:10254000B11D8DA39EA3AFA3B8A70BC04DA35EA3DF
:102550006FA378A706C0323071F14DA35EA36FA3BD
:1025600078A7313051F58E010E5F1F4FC8010E94D0
:10257000CE038E899091A603981710F48093A6033A
:1025800090E09C01220F331F220F331F220F331FB5
:10259000820F931F80559C4FB8010E947D03E091EC
:1025A0009D03F0919E039E898689891740F40E94BD
:1025B0000D0581E005C080E003C081E001C081E03D
:1025C0000F900FBEDF91CF911F910F910895EF9261
:1025D000FF920F931F93CF93DF93EC010115110529
:1025E00049F08DA19EA1AFA1B8A5F8018083918388
:1025F000A283B38339A582E089A72230B9F02330C2
:1026000018F4213059F505C02330E1F0243031F5BC
:102610001EC08DA19EA1AFA1B8A5842B952BA62B82
:10262000B72B8DA39EA3AFA3B8A718C08DA19EA161
:10263000AFA1B8A50196A11DB11D8DA39EA3AFA307
:10264000B8A70CC04DA35EA36FA378A707C0323014
:1026500009F441C04DA35EA36FA378A73130E9F51B
:1026600080919F038823E9F48E010E5F1F4FC801FC
:102670000E94CE038E899091A603981710F4809340
:10268000A60390E09C01220F331F220F331F220F5D
:10269000331F820F931F80559C4FB8010E947D030A
:1026A00007C0BE01645F7F4F8FEE93E00E947D0301
:1026B000E0919D03F0919E039E898689891778F4A5
:1026C000E114F10421F081E0F701808309C081E089
:1026D0008093A30305C080E003C081E001C081E0D6
:1026E000DF91CF911F910F91FF90EF900895EF929E
:1026F000FF920F931F93CF93DF93EC018B0129A5DA
:1027000082E089A78DA19EA1AFA1B8A50196A11DC8
:10271000B11D8DA39EA3AFA3B8A72130E9F5809189
:102720009F03882301F5EE24FF246894E1F8EC0E62
:10273000FD1EC7010E94CE038E899091A6039817B3
:1027400010F48093A60390E09C01220F331F220F08
:10275000331F220F331F820F931F80559C4FB701E9
:102760000E947D0307C0BE01645F7F4F8FEE93E040
:102770000E947D03E0919D03F0919E039E898689CE
:10278000891750F40115110521F081E0F8018083CB
:1027900003C081E08093A303DF91CF911F910F913C
:1027A000FF90EF900895009729F4E0919D03F09138
:1027B0009E0301C0FC010FB6F8940F9281A58230F0
:1027C00019F411A681E001C080E00F900FBE0895BA
:1027D000FB01DC0102C001900D9241505040D8F73E
:0627E0000895F894FFCFFC
:1027E6001F03416C69004D6F7273790049444C4573
:0227F6000000E1
:00000001FF
