S00B00005254432E7372656330
S11300000C942A000C9447000C9447000C9447006D
S11300100C9447000C9447000C9447000C94470040
S11300200C9447000C9447000C9447000C94470030
S11300300C9447000C9447000C9447000C94470020
S11300400C9447000C9447000C9447000C94470010
S11300500C94470011241FBECFE5D8E0DEBFCDBF0E
S113006010E0A0E6B0E0EEE9F8E002C005900D92E1
S1130070A836B107D9F710E0A8E6B0E001C01D9298
S1130080A836B107E1F70E946F030C944D040C9459
S11300900000613029F4E82FF0E08FEF81830895A8
S11300A0662319F4E82FF0E011820895413079F4C1
S11300B0E82FF0E0218181E090E0AC0102C0440F20
S11300C0551F6A95E2F7BA01622B618308954423B0
S11300D079F4E82FF0E0218181E090E0AC0102C0E6
S11300E0440F551F6A95E2F7BA0160956223618354
S11300F00895E82FF0E062830895413079F4E82F01
S1130100F0E0228181E090E0AC0102C0440F551F71
S11301106A95E2F7BA01622B62830895442379F465
S1130120E82FF0E0228181E090E0AC0102C0440FAE
S1130130551F6A95E2F7BA016095622362830895B8
S1130140CF93DF930F92CDB7DEB7E82FF0E0808135
S1130150898389810F90DF91CF910895CF93DF93A5
S11301600F92CDB7DEB7E82FF0E0808190E09C01DC
S113017002C0359527956A95E2F7B90161706983E4
S113018089810F90DF91CF910895E82FF0E02281CB
S113019081E090E0AC0102C0440F551F6A95E2F77C
S11301A0BA01622762830895E82FF0E082818F709C
S11301B0828382816295607F682762830895E82F35
S11301C0F0E08281807F828382816F7068276283FE
S11301D00895EF92FF920F931F93CF93DF93EC0157
S11301E08B017A010E94B30280ED0E94BA0280E082
S11301F00E94CC0281ED0E94D4020E94F102888305
S11302000E94F102F80180830E94F802F7018083C2
S11302100E94FF02DF91CF911F910F91FF90EF9009
S11302200895CF92DF92EF92FF920F931F93CF9393
S1130230DF93EC018B017A0169010E94B30280ED26
S11302400E94BA0283E00E94CC0281ED0E94D40293
S11302500E94F10288830E94F102F80180830E94C7
S1130260F102F70180830E94F802F60180830E9464
S1130270FF02DF91CF911F910F91FF90EF90DF90DC
S1130280CF90089589E365E041E00E947D008FE905
S11302909FE00197F1F700C0000089E365E040E0CA
S11302A00E947D000895CF93C82F482F42954F7028
S11302B0417089E360E00E947D004C2F4295469591
S11302C04770417089E361E00E947D004C2F4295A4
S11302D0469546954370417089E362E00E947D0033
S11302E04C2F441F4427441F89E363E00E947D0090
S11302F089E364E041E00E947D000E9442014C2FAA
S1130300417089E360E00E947D004C2F4695417066
S113031089E361E00E947D004C2F4695469541702B
S113032089E362E00E947D00C695C695C6954C2F70
S1130330417089E363E00E947D0089E364E041E069
S11303400E947D000E944201CF910895CF93DF93D4
S1130350EC018881882331F021960E945301899110
S11303608823D9F7DF91CF910895CF93C82F482FD1
S113037042954F70417089E360E00E947D004C2FEC
S1130380429546954770417089E361E00E947D0083
S11303904C2F4295469546954370417089E362E03F
S11303A00E947D004C2F441F4427441F89E363E0CF
S11303B00E947D0089E364E040E00E947D000E9489
S11303C042014C2F417089E360E00E947D004C2F74
S11303D04695417089E361E00E947D004C2F46956B
S11303E04695417089E362E00E947D00C695C695FA
S11303F0C6954C2F417089E363E00E947D0089E338
S113040064E040E00E947D000E944201CF91089583
S11304108FEF91EEA4E081509040A040E1F700C03E
S1130420000089E360E041E00E94560089E361E056
S113043041E00E94560089E362E041E00E945600D8
S113044089E363E041E00E94560089E365E041E00E
S11304500E94560089E364E041E00E94560089E36B
S113046066E041E00E94560089E366E040E00E94B5
S11304707D0082E00E94B501AFE1BEE41197F1F77F
S113048000C0000088E20E94B5018FEC97E001975C
S1130490F1F700C000008EE00E94B501AFECB7E0B8
S11304A01197F1F700C0000081E00E94B5018FE1CF
S11304B09EE40197F1F700C0000080E00E94B501BE
S11304C0AFECB7E01197F1F700C00000089581E0A8
S11304D00E94B5010895CF93DF930F92CDB7DEB795
S11304E0813019F4615869830EC0823019F4615463
S11304F0698309C08150823020F4613110F466238D
S113050011F480E8898389810E94B5018FEC97E01A
S11305100197F1F700C000000F90DF91CF9108958B
S11305200F931F93CF938C01FC018081882351F09A
S1130530C0E00E945301CF5FF801EC0FF11D8081F0
S11305408823B9F7CF911F910F91089560E970E066
S113055080E090E020E030E0A9010E942B0420B963
S113056008980998089584EA86BF06B607FEFDCF69
S113057081B1089583B984E886BF06B607FEFDCF2E
S113058081B1887F883119F0803221F402C091E072
S113059001C090E0892F089583B984E886BF06B628
S11305A007FEFDCF81B1089594EA96BF06B607FE13
S11305B0FDCF91B1987F903171F483B984E886BFFF
S11305C006B607FEFDCF81B1887F803431F08834D0
S11305D031F482E0089580E0089581E0089583E095
S11305E0089584EC86BF06B607FEFDCF83B1089557
S11305F084E886BF06B607FEFDCF83B1089586B7AB
S1130600806186BF86B784FDFDCF089582B986B721
S1130610846086BF86B7806486BF86B7806886BFDD
S1130620089586B7806886BF06B607FEFDCF81B100
S1130630887F803661F0883661F0883A61F0803BCB
S113064061F0803761F0883761F782E0089580E0D7
S1130650089580E0089581E0089581E0089582E09E
S1130660089583B986B7806886BF06B607FEFDCFB6
S113067081B1887F803A29F486B7806886BF8FEF7E
S11306800895883B59F0803C29F486B7806886BF7A
S11306908EEF0895883C21F48DEF089580E008954D
S11306A08CEF089586B7806886BF06B607FEFDCF37
S11306B081B1887F803811F0803911F483B10895B5
S11306C0883811F0883911F483B10895803A29F4F7
S11306D086B7806886BF8FEF08958EEF0895CF9315
S11306E0DF93CDB7DEB727970FB6F894DEBF0FBE02
S11306F0CDBF19821A821B821C821D821E821F8218
S11307000E9408028CE00E94B5010E94A60204E641
S113071010E00F2EF0E6EF2EF0E0FF2EF02DCE01CC
S11307200196BE016E5F7F4FAE014D5F5F4F0E9429
S1130730E900CE010496BE016B5F7F4FAE014A5FB4
S11307405F4F9E01295F3F4F0E94110181E061E0EC
S11307500E946B028B8190E08073907095958795D1
S1130760959587959595879595958795805D0E9434
S113077053018B818F70805D0E9453018AE30E9434
S113078053018A8190E0807790709595879595952F
S113079087959595879595958795805D0E945301DA
S11307A08A818F70805D0E9453018AE30E94530105
S11307B0898190E080779070959587959595879538
S11307C09595879595958795805D0E9453018981BC
S11307D08F70805D0E9453018B8185FF04C0C70127
S11307E00E94A60103C0C8010E94A60182E061E044
S11307F00E946B028D8182958F70805D0E945301EF
S11308008D818F70805D0E9453018DE20E9453019F
S11308108E8182958F70805D0E9453018E818F70CE
S1130820805D0E9453018DE20E9453018F81829565
S11308308F70805D0E9453018F818F70805D0E9454
S113084053018FEF91EEA4E081509040A040E1F776
S113085000C0000064CFA1E21A2EAA1BBB1BFD013D
S11308600DC0AA1FBB1FEE1FFF1FA217B307E4078B
S1130870F50720F0A21BB30BE40BF50B661F771FE3
S1130880881F991F1A9469F76095709580959095C3
S11108909B01AC01BD01CF010895F894FFCF88
S10B089E20504D0020414D00E3
S9030000FC
