S0100000466173745F50574D2E7372656333
S11300000C942A000C9447000C9447000C9447006D
S11300100C9447000C9447000C9447000C94470040
S11300200C9447000C9447000C9447000C94470030
S11300300C9447000C9447000C9447000C94470020
S11300400C9447000C9447000C9447000C94470010
S11300500C94470011241FBECFE5D8E0DEBFCDBF0E
S113006010E0A0E6B0E0EEEAF2E002C005900D92E6
S1130070A036B107D9F710E0A0E6B0E001C01D92A8
S1130080A036B107E1F70E9449000C9455010C9485
S113009000000E943B018FE70E945301FFCF6130B3
S11300A029F4E82FF0E08FEF81830895662319F493
S11300B0E82FF0E011820895413079F4E82FF0E060
S11300C0218181E090E0AC0102C0440F551F6A9584
S11300D0E2F7BA01622B61830895442379F4E82F8F
S11300E0F0E0218181E090E0AC0102C0440F551F93
S11300F06A95E2F7BA016095622361830895E82F57
S1130100F0E062830895413079F4E82FF0E0228131
S113011081E090E0AC0102C0440F551F6A95E2F7FC
S1130120BA01622B62830895442379F4E82FF0E046
S1130130228181E090E0AC0102C0440F551F6A9512
S1130140E2F7BA016095622362830895CF93DF9347
S11301500F92CDB7DEB7E82FF0E0808189838981E3
S11301600F90DF91CF910895CF93DF930F92CDB786
S1130170DEB7E82FF0E0808190E09C0102C0359565
S113018027956A95E2F7B9016170698389810F90B7
S1130190DF91CF910895E82FF0E0228181E090E093
S11301A0AC0102C0440F551F6A95E2F7BA016227F9
S11301B062830895E82FF0E082818F7082838281C8
S11301C06295607F682762830895E82FF0E082815A
S11301D0807F828382816F7068276283089593B7DA
S11301E09F7B93BF93B7986093BF93B7987F93BF58
S11301F093B7956093BF8CBF89B7826089BF8FB76F
S113020080688FBF0895CF93DF93D82FC62F86E3DE
S113021063E041E00E945C0083B78F7B83BF83B7B8
S1130220886083BF83B7887F83BF83B7856083BFBC
S1130230DCBF43B72C2F30E021703070C9018295A8
S11302409295907F9827807F9827842B83BF23B72C
S1130250C6958C2F90E081709070EC01CC0FDD1F5F
S1130260C295D295D07FDC27C07FDC27C22BC3BFC9
S1130270DF91CF91089586E363E041E00E945C0042
S113028083B7806483BF83B7886083BF83B7887F65
S113029083BF83B7856083BF83B78F7E83BF83B7F4
S11102A0806283BF08958CBF0895F894FFCF49
S9030000FC
