S01C00004243445F746F5F736576656E5F7365676D656E742E737265632B
S11300000C942A000C9447000C9447000C9447006D
S11300100C9447000C9447000C9447000C94470040
S11300200C9447000C9447000C9447000C94470030
S11300300C9447000C9447000C9447000C94470020
S11300400C9447000C9447000C9447000C94470010
S11300500C94470011241FBECFE5D8E0DEBFCDBF0E
S113006010E0A0E6B0E0EEE1F3E002C005900D92EE
S1130070AA36B107D9F710E0AAE6B0E001C01D9294
S1130080AA36B107E1F70E9449000C948D010C9443
S113009000000E94EF00C0E0D0E08C2F0E945501C8
S11300A08FEF99E6A8E181509040A040E1F700C0AD
S11300B00000CF5FCA3088F3CD2FEFCF613029F431
S11300C0E82FF0E08FEF81830895662319F4E82F79
S11300D0F0E011820895413079F4E82FF0E02181B5
S11300E081E090E0AC0102C0440F551F6A95E2F72D
S11300F0BA01622B61830895442379F4E82FF0E078
S1130100218181E090E0AC0102C0440F551F6A9543
S1130110E2F7BA016095622361830895E82FF0E065
S113012062830895413079F4E82FF0E0228181E080
S113013090E0AC0102C0440F551F6A95E2F7BA0182
S1130140622B62830895442379F4E82FF0E022813E
S113015081E090E0AC0102C0440F551F6A95E2F7BC
S1130160BA016095622362830895CF93DF930F925F
S1130170CDB7DEB7E82FF0E08081898389810F90C5
S1130180DF91CF910895CF93DF930F92CDB7DEB770
S1130190E82FF0E0808190E09C0102C0359527951E
S11301A06A95E2F7B9016170698389810F90DF91E3
S11301B0CF910895E82FF0E082818F70828382814D
S11301C06295607F682762830895E82FF0E082815A
S11301D0807F828382816F7068276283089583E3BE
S11301E060E041E00E946B0083E361E041E00E9433
S11301F06B0083E362E041E00E946B0083E363E011
S113020041E00E946B0083E364E041E00E946B00E4
S113021083E365E041E00E946B0083E366E041E034
S11302200E946B000895CF93DF93C0E6D0E0C80F1F
S1130230D11D4881417083E360E00E9492004881AF
S11302404695417083E361E00E949200488146959F
S11302504695417083E362E00E949200488146958E
S113026046954695417083E363E00E94920048817D
S113027042954F70417083E364E00E94920048818C
S1130280429546954770417083E365E00E94920071
S113029048814295469546954370417083E366E0F4
S11302A00E949200DF91CF910895CF93C82F482FD9
S11302B0417083E360E00E9492004C2F46954170A8
S11302C083E361E00E9492004C2F4695469541706D
S11302D083E362E00E949200C695C695C6954C2FB2
S11302E0417083E363E00E949200CF91089540E05F
S11302F00E946B000895CF93DF93D82FC62F40E060
S11303000E946B008D2F6C2F41E00E949200DF91C0
S1110310CF9108950E94C3000895F894FFCF82
S10D031E3F065B4F666D7D077F6F9D
S9030000FC
