S017000048656C6C6F20496E746572727570742E737265632C
S11300000C942A000C9415010C9447000C9447009E
S11300100C9447000C9447000C9447000C94470040
S11300200C9447000C9447000C9447000C94470030
S11300300C9447000C9447000C9447000C94470020
S11300400C9447000C9447000C9447000C94470010
S11300500C94470011241FBECFE5D8E0DEBFCDBF0E
S113006010E0A0E6B0E0EAE6F2E002C005900D92EE
S1130070A036B107D9F710E0A0E6B0E001C01D92A8
S1130080A036B107E1F70E94FF000C9433010C94F1
S11300900000613029F4E82FF0E08FEF81830895A8
S11300A0662319F4E82FF0E011820895413079F4C1
S11300B0E82FF0E0218181E090E0AC0102C0440F20
S11300C0551F6A95E2F7BA01622B618308954423B0
S11300D079F4E82FF0E0218181E090E0AC0102C0E6
S11300E0440F551F6A95E2F7BA0160956223618354
S11300F00895E82FF0E062830895413079F4E82F01
S1130100F0E0228181E090E0AC0102C0440F551F71
S11301106A95E2F7BA01622B62830895442379F465
S1130120E82FF0E0228181E090E0AC0102C0440FAE
S1130130551F6A95E2F7BA016095622362830895B8
S1130140CF93DF930F92CDB7DEB7E82FF0E0808135
S1130150898389810F90DF91CF910895CF93DF93A5
S11301600F92CDB7DEB7E82FF0E0808190E09C01DC
S113017002C0359527956A95E2F7B90161706983E4
S113018089810F90DF91CF910895E82FF0E02281CB
S113019081E090E0AC0102C0440F551F6A95E2F77C
S11301A0BA01622762830895E82FF0E082818F709C
S11301B0828382816295607F682762830895E82F35
S11301C0F0E08281807F828382816F7068276283FE
S11301D0089540E00E9456000895CF93DF93D82FEE
S11301E0C62F40E00E9456008D2F6C2F41E00E94E4
S11301F07D00DF91CF9108950E94AE0008958FB7DE
S113020080688FBF85B7836085BF8BB780648BBFE1
S113021089E360E00E94230180E362E00E94E90038
S113022089E360E00E942B01FBCF89E360E00E9438
S113023027018FEF99E6A8E181509040A040E1F7B3
S113024000C00000789441E00E945600089541E007
S11302500E947D00089540E00E947D000895089565
S10D02600E94AE000895F894FFCF49
S9030000FC
