:100000000C942A000C9447000C9447000C94470071
:100010000C9487000C9447000C9447000C94470004
:100020000C9447000C9447000C9447000C94470034
:100030000C9447000C9447000C9447000C94470024
:100040000C9447000C9447000C9447000C94470014
:100050000C94470011241FBECFE5D8E0DEBFCDBF12
:1000600010E0A0E6B0E0E4E5F1E002C005900D92FA
:10007000A036B107D9F710E0A0E6B0E001C01D92AC
:10008000A436B107E1F70E9449000C94A8000C9433
:100090000000D09AD19AD29A8F9A85B5886085BD92
:1000A00085B5816085BD85B5826085BD85B5846077
:1000B00085BD80E583BD85B5806185BD89B78068D4
:1000C00089BF789431E022E044E080916000853679
:1000D00028F08BB383278BBB109260008091630064
:1000E000893C28F08BB382278BBB109263008091F0
:1000F00061009091620051E08D32950730F38BB32F
:1001000084278BBB1092620010926100DECF1F9299
:100110000F920FB60F9211248F939F9380916000DE
:100120008F5F80936000809163008F5F8093630096
:10013000809161009091620001969093620080939B
:1001400061009F918F910F900FBE0F901F90189597
:04015000F894FFCF51
:00000001FF
