:100000000C942A000C9447000C9447000C94470071
:100010000C9447000C9447000C9447000C94470044
:100020000C9447000C9447000C9447000C94470034
:100030000C9447000C9447000C9447000C94470024
:100040000C9447000C9447000C9447000C94470014
:100050000C94470011241FBECFE5D8E0DEBFCDBF12
:1000600010E0A0E6B0E0E8E2F7E002C005900D92F3
:10007000AE36B107D9F710E0AEE6B0E001C01D9290
:10008000A437B107E1F70E94E9000C9492030C94A5
:100090000000613029F4E82FF0E08FEF81830895AC
:1000A000662319F4E82FF0E011820895413079F4C5
:1000B000E82FF0E0218181E090E0AC0102C0440F24
:1000C000551F6A95E2F7BA01622B618308954423B4
:1000D00079F4E82FF0E0218181E090E0AC0102C0EA
:1000E000440F551F6A95E2F7BA0160956223618358
:1000F0000895E82FF0E062830895413079F4E82F05
:10010000F0E0228181E090E0AC0102C0440F551F75
:100110006A95E2F7BA01622B62830895442379F469
:10012000E82FF0E0228181E090E0AC0102C0440FB2
:10013000551F6A95E2F7BA016095622362830895BC
:10014000CF93DF930F92CDB7DEB7E82FF0E0808139
:10015000898389810F90DF91CF910895CF93DF93A9
:100160000F92CDB7DEB7E82FF0E0808190E09C01E0
:1001700002C0359527956A95E2F7B90161706983E8
:1001800089810F90DF91CF910895E82FF0E02281CF
:1001900081E090E0AC0102C0440F551F6A95E2F780
:1001A000BA01622762830895E82FF0E082818F70A0
:1001B000828382816295607F682762830895E82F39
:1001C000F0E08281807F828382816F706827628302
:1001D000089583E360E041E00E94560083E361E01C
:1001E00041E00E94560083E362E041E00E94560035
:1001F0000F2EFAE08F2EF0E09F2EF0E0AF2EF0E011
:10020000BF2EF02D0F2EF4E64F2EF0E05F2EF0E023
:100210006F2EF0E07F2EF02DC4E6D0E0C09060009D
:10022000D0906100E0906200F090630084E6C81610
:10023000D104E104F10408F041C0C701B601A501F1
:1002400094010E94700320937300609372001092D7
:1002500071001092700010926F0010926E00FE01FB
:10026000E60FF11D80810E942E0380917300FE0134
:10027000E80FF11D80810E942E0380916E00FE0127
:10028000E80FF11D80810E942E0380916F00FE0116
:10029000E80FF11D80810E942E0380917000FE0105
:1002A000E80FF11D80810E942E0380917100FE01F4
:1002B000E80FF11D80810E942E03B3C198EEC9168C
:1002C00093E0D90690E0E90690E0F90608F04EC008
:1002D000C701B601A30192010E947003209373002D
:1002E000C701B601A50194010E947003C62ECA0180
:1002F000B901A50194010E94700360937200C0923D
:1003000071001092700010926F0010926E00FE014A
:10031000EC0DF11D80810E942E0380917200FE0180
:10032000E80FF11D80810E942E0380917300FE0171
:10033000E80FF11D80810E942E0380917000FE0164
:10034000E80FF11D80810E942E0380916F00FE0155
:10035000E80FF11D80810E942E0380916E00FE0146
:10036000E80FF11D80810E942E035BC1A0E1CA1637
:10037000A7E2DA06A0E0EA06A0E0FA0608F05CC010
:10038000C701B60128EE33E040E050E00E94700360
:1003900020937300C701B601A30192010E9470036C
:1003A000CA01B901A50194010E9470036093720013
:1003B000C701B601A50194010E947003C62ECA01AF
:1003C000B901A50194010E94700360937100C0926D
:1003D000700010926F0010926E00FE01EC0DF11D86
:1003E00080810E942E0380917100FE01E80FF11DB3
:1003F00080810E942E0380917200FE01E80FF11DA2
:1004000080810E942E0380917300FE01E80FF11D90
:1004100080810E942E0380916F00FE01E80FF11D84
:1004200080810E942E0380916E00FE01E80FF11D75
:1004300080810E942E03F5C0B0EACB16B6E8DB0639
:10044000B1E0EB06B0E0FB0608F06AC0C701B601F8
:1004500020E137E240E050E00E94700320937300F7
:10046000C701B60128EE33E040E050E00E9470037F
:10047000CA01B901A50194010E9470036093720042
:10048000C701B601A30192010E947003CA01B9011C
:10049000A50194010E94700360937100C701B60129
:1004A000A50194010E947003C62ECA01B901A501DD
:1004B00094010E94700360937000C0926F001092CC
:1004C0006E00FE01EC0DF11D80810E942E038091D3
:1004D0007000FE01E80FF11D80810E942E038091C3
:1004E0007100FE01E80FF11D80810E942E038091B2
:1004F0007200FE01E80FF11D80810E942E038091A1
:100500007300FE01E80FF11D80810E942E0380918F
:100510006E00FE01E80FF11D80810E942E0381C054
:1005200080E4C81682E4D8068FE0E80680E0F8068A
:1005300008F077C0C701B60120EA36E841E050E094
:100540000E94700320937300C701B60120E137E2D7
:1005500040E050E00E947003CA01B901A501940176
:100560000E94700360937200C701B60128EE33E069
:1005700040E050E00E947003CA01B901A501940156
:100580000E94700360937100C701B601A30192013C
:100590000E947003CA01B901A50194010E94700371
:1005A00060937000C701B601A50194010E94700319
:1005B000C62ECA01B901A50194010E94700360937F
:1005C0006F00C0926E00FE01EC0DF11D80810E9453
:1005D0002E0380916F00FE01E80FF11D80810E94C3
:1005E0002E0380917000FE01E80FF11D80810E94B2
:1005F0002E0380917100FE01E80FF11D80810E94A1
:100600002E0380917200FE01E80FF11D80810E948F
:100610002E0380917300FE01E80FF11D80810E947E
:100620002E038091600090916100A0916200B091D2
:1006300063000196A11DB11D80936000909361003D
:10064000A0936200B09363008FEF94E3ACE081501D
:100650009040A040E1F700C00000E0CD0F931F9351
:10066000CF93DF93C7E0D0E0082F10E0A8010C2E55
:1006700002C0559547950A94E2F7417083E360E024
:100680000E947D0083E361E041E00E947D0082E002
:100690008A95F1F700C083E361E040E00E947D00AD
:1006A00082E08A95F1F700C021978FEFCF3FD807FE
:1006B000E9F683E362E041E00E947D0082E08A95F2
:1006C000F1F700C083E362E040E00E947D0082E039
:1006D0008A95F1F700C0DF91CF911F910F91089596
:1006E000A1E21A2EAA1BBB1BFD010DC0AA1FBB1F36
:1006F000EE1FFF1FA217B307E407F50720F0A21BA8
:10070000B30BE40BF50B661F771F881F991F1A9414
:1007100069F760957095809590959B01AC01BD013E
:08072000CF010895F894FFCF0A
:0E0728001C1B0F003F065B4F666D7D077F6F49
:00000001FF
