:100000000C942A000C9447000C9447000C94470071
:100010000C9447000C9447000C9447000C94470044
:100020000C9447000C9447000C94BB010C944700BF
:100030000C9447000C9447000C9447000C94470024
:100040000C9447000C9447000C9447000C94470014
:100050000C94470011241FBECFE5D8E0DEBFCDBF12
:1000600010E0A0E6B0E0ECEEF3E002C005900D92E7
:10007000AA36B107D9F710E0AAE6B0E001C01D9298
:10008000AD36B107E1F70E9471010C94F4010C94B4
:100090000000613029F4E82FF0E08FEF81830895AC
:1000A000662319F4E82FF0E011820895413079F4C5
:1000B000E82FF0E0218181E090E0AC0102C0440F24
:1000C000551F6A95E2F7BA01622B618308954423B4
:1000D00079F4E82FF0E0218181E090E0AC0102C0EA
:1000E000440F551F6A95E2F7BA0160956223618358
:1000F0000895E82FF0E062830895413079F4E82F05
:10010000F0E0228181E090E0AC0102C0440F551F75
:100110006A95E2F7BA01622B62830895442379F469
:10012000E82FF0E0228181E090E0AC0102C0440FB2
:10013000551F6A95E2F7BA016095622362830895BC
:10014000CF93DF930F92CDB7DEB7E82FF0E0808139
:10015000898389810F90DF91CF910895CF93DF93A9
:100160000F92CDB7DEB7E82FF0E0808190E09C01E0
:1001700002C0359527956A95E2F7B90161706983E8
:1001800089810F90DF91CF910895E82FF0E02281CF
:1001900081E090E0AC0102C0440F551F6A95E2F780
:1001A000BA01622762830895E82FF0E082818F70A0
:1001B000828382816295607F682762830895E82F39
:1001C000F0E08281807F828382816F706827628302
:1001D000089583E360E041E00E94560083E361E01C
:1001E00041E00E94560083E362E041E00E94560035
:1001F00083E363E041E00E94560083E364E041E072
:100200000E94560083E365E041E00E94560083E3CC
:1002100066E041E00E9456000895CF93DF93C0E668
:10022000D0E0C80FD11D4881417083E360E00E9497
:100230007D0048814695417083E361E00E947D0026
:10024000488146954695417083E362E00E947D00B7
:100250004881469546954695417083E363E00E9448
:100260007D00488142954F70417083E364E00E94B5
:100270007D004881429546954770417083E365E073
:100280000E947D0048814295469546954370417095
:1002900083E366E00E947D00DF91CF910895CF93C4
:1002A000C82F482F417083E360E00E947D004C2FEF
:1002B0004695417083E361E00E947D004C2F469596
:1002C0004695417083E362E00E947D00C695C69525
:1002D000C6954C2F417083E363E00E947D00CF916F
:1002E000089580E360E041E00E94560080E361E011
:1002F00041E00E9456000E94E90080E50E94D4017E
:10030000CAE080916C00882391F480E360E040E0D3
:100310000E947D0080E361E041E00E947D008091C9
:100320006B006C2F0E94E8010E940D0112C080E357
:1003300060E041E00E947D0080E361E040E00E94D7
:100340007D0080916B006C2F0E94E801892F0E9434
:100350000D0180916A00843638F080916B008F5FC8
:1003600080936B0010926A0080916B00843648F293
:1003700010926B00C6CF1F920F920FB60F921124EE
:100380008F939F9380916A008F5F80936A00909112
:100390006C0081E0892780936C009F918F910F9072
:1003A0000FBE0F901F90189593B79F7B93BF93B785
:1003B000986093BF93B7987F93BF93B7956093BFAF
:1003C0008CBF89B7826089BF8FB780688FBF08955F
:1003D000991B79E004C0991F961708F0961B881F97
:0C03E0007A95C9F780950895F894FFCF36
:0A03EC003F065B4F666D7D077F6FD3
:00000001FF
