:100000000C942A000C9447000C9447000C94470071
:100010000C9447000C9447000C9447000C94470044
:100020000C9447000C9447000C9447000C94470034
:100030000C9447000C9447000C9447000C94470024
:100040000C9447000C9447000C9447000C94470014
:100050000C94470011241FBECFE5D8E0DEBFCDBF12
:1000600010E0A0E6B0E0E4ECF5E002C005900D92EF
:10007000A036B107D9F710E0A0E6B0E001C01D92AC
:10008000A036B107E1F70E94AC020C94E0020C9498
:100090000000613029F4E82FF0E08FEF81830895AC
:1000A000662319F4E82FF0E011820895413079F4C5
:1000B000E82FF0E0218181E090E0AC0102C0440F24
:1000C000551F6A95E2F7BA01622B618308954423B4
:1000D00079F4E82FF0E0218181E090E0AC0102C0EA
:1000E000440F551F6A95E2F7BA0160956223618358
:1000F0000895E82FF0E062830895413079F4E82F05
:10010000F0E0228181E090E0AC0102C0440F551F75
:100110006A95E2F7BA01622B62830895442379F469
:10012000E82FF0E0228181E090E0AC0102C0440FB2
:10013000551F6A95E2F7BA016095622362830895BC
:10014000CF93DF930F92CDB7DEB7E82FF0E0808139
:10015000898389810F90DF91CF910895CF93DF93A9
:100160000F92CDB7DEB7E82FF0E0808190E09C01E0
:1001700002C0359527956A95E2F7B90161706983E8
:1001800089810F90DF91CF910895E82FF0E02281CF
:1001900081E090E0AC0102C0440F551F6A95E2F780
:1001A000BA01622762830895E82FF0E082818F70A0
:1001B000828382816295607F682762830895E82F39
:1001C000F0E08281807F828382816F706827628302
:1001D000089589E365E041E00E947D008FE99FE09A
:1001E0000197F1F700C0000089E365E040E00E945C
:1001F0007D000895CF93C82F482F42954F704170CE
:1002000089E360E00E947D004C2F4295469547703F
:10021000417089E361E00E947D004C2F4295469534
:1002200046954370417089E362E00E947D004C2F47
:10023000441F4427441F89E363E00E947D0089E353
:1002400064E041E00E947D000E94E9004C2F417073
:1002500089E360E00E947D004C2F4695417089E360
:1002600061E00E947D004C2F46954695417089E3E0
:1002700062E00E947D00C695C695C6954C2F4170E0
:1002800089E363E00E947D0089E364E041E00E942D
:100290007D000E94E900CF910895CF93DF93EC0198
:1002A0008881882331F021960E94FA008991882361
:1002B000D9F7DF91CF910895CF93C82F482F42955A
:1002C0004F70417089E360E00E947D004C2F4295A1
:1002D00046954770417089E361E00E947D004C2F94
:1002E0004295469546954370417089E362E00E94CD
:1002F0007D004C2F441F4427441F89E363E00E9484
:100300007D0089E364E040E00E947D000E94E900F6
:100310004C2F417089E360E00E947D004C2F469590
:10032000417089E361E00E947D004C2F469546951F
:10033000417089E362E00E947D00C695C695C6952E
:100340004C2F417089E363E00E947D0089E364E003
:1003500040E00E947D000E94E900CF9108958FEF58
:1003600091EEA4E081509040A040E1F700C0000071
:1003700089E360E041E00E94560089E361E041E0EA
:100380000E94560089E362E041E00E94560089E342
:1003900063E041E00E94560089E365E041E00E948D
:1003A000560089E364E041E00E94560089E366E07C
:1003B00041E00E94560089E366E040E00E947D0033
:1003C00082E00E945C01AFE1BEE41197F1F700C04A
:1003D000000088E20E945C018FEC97E00197F1F742
:1003E00000C000008EE00E945C01AFECB7E0119706
:1003F000F1F700C0000081E00E945C018FE19EE403
:100400000197F1F700C0000080E00E945C01AFECB2
:10041000B7E01197F1F700C00000089581E00E9455
:100420005C010895CF93DF930F92CDB7DEB7813093
:1004300019F4615869830EC0823019F461546983DC
:1004400009C08150823020F4613110F4662311F428
:1004500080E8898389810E945C018FEC97E0019795
:10046000F1F700C000000F90DF91CF9108950F9336
:100470001F93CF938C01FC018081882351F0C0E051
:100480000E94FA00CF5FF801EC0FF11D80818823F4
:10049000B9F7CF911F910F910895CF93DF93C42F98
:1004A000D22FDC01CB01880F991FAA1FBB1F880F19
:1004B000991FAA1FBB1F9C01AD01220F331F441FB0
:1004C000551F220F331F441F551F60E072E18AE75A
:1004D00090E00E94BE022150304030BD29B9D23098
:1004E00021F480B5806A80BD05C0D33019F480B591
:1004F000806B80BDC13021F480B5866880BD05C0A9
:10050000C23019F480B58E6880BD8AB188618AB91D
:10051000DF91CF9108959BB195FFFDCF8CB90895E0
:10052000CF93DF93EC018881882379F021960E9494
:100530008B028FE798E3A1E081509040A040E1F763
:1005400000C000008991882391F7DF91CF91089531
:100550005F9BFECF8CB108950E94AF0160E875E209
:1005600080E090E041E020E00E944D020E94A8025D
:100570000E94FA0081E30E948B02F8CFA1E21A2EBA
:10058000AA1BBB1BFD010DC0AA1FBB1FEE1FFF1F37
:10059000A217B307E407F50720F0A21BB30BE40B87
:1005A000F50B661F771F881F991F1A9469F76095CE
:1005B0007095809590959B01AC01BD01CF01089588
:0405C000F894FFCFDD
:00000001FF
