:100000000C942A000C9447000C9447000C94470071
:100010000C9447000C9447000C9447000C94470044
:100020000C9447000C9447000C9447000C94470034
:100030000C9447000C9447000C9447000C94470024
:100040000C9447000C9447000C9447000C94470014
:100050000C94470011241FBECFE5D8E0DEBFCDBF12
:1000600011E0A0E6B0E0ECE9F9E002C005900D92E5
:10007000A230B107D9F711E0A2E0B1E001C01D92B2
:10008000A230B107E1F70E942B040C94CC040C942D
:100090000000613029F4E82FF0E08FEF81830895AC
:1000A000662319F4E82FF0E011820895413079F4C5
:1000B000E82FF0E0218181E090E0AC0102C0440F24
:1000C000551F6A95E2F7BA01622B618308954423B4
:1000D00079F4E82FF0E0218181E090E0AC0102C0EA
:1000E000440F551F6A95E2F7BA0160956223618358
:1000F0000895E82FF0E062830895413079F4E82F05
:10010000F0E0228181E090E0AC0102C0440F551F75
:100110006A95E2F7BA01622B62830895442379F469
:10012000E82FF0E0228181E090E0AC0102C0440FB2
:10013000551F6A95E2F7BA016095622362830895BC
:10014000CF93DF930F92CDB7DEB7E82FF0E0808139
:10015000898389810F90DF91CF910895CF93DF93A9
:100160000F92CDB7DEB7E82FF0E0808190E09C01E0
:1001700002C0359527956A95E2F7B90161706983E8
:1001800089810F90DF91CF910895E82FF0E02281CF
:1001900081E090E0AC0102C0440F551F6A95E2F780
:1001A000BA01622762830895E82FF0E082818F70A0
:1001B000828382816295607F682762830895E82F39
:1001C000F0E08281807F828382816F706827628302
:1001D000089583E360E041E00E94560083E361E01C
:1001E00041E00E94560083E362E041E00E94560035
:1001F00083E363E041E00E94560083E364E040E073
:100200000E94560083E365E040E00E94560083E3CD
:1002100066E040E00E94560083E367E040E00E9411
:10022000560083E364E041E00E947D0083E365E0E3
:1002300041E00E947D0083E366E041E00E947D0092
:1002400083E367E041E00E947D000895EF92FF9212
:100250000F931F93CF9300E010E00F2EF0E6EF2EE8
:10026000F0E0FF2EF02D83E360E041E00E947D008E
:1002700083E361E041E00E947D0083E362E041E0CE
:100280000E947D0083E363E041E00E947D0083E300
:10029000602F40E00E947D00C0E06C2F6C5F83E324
:1002A0000E94AE00882371F4C801880F991F880F3F
:1002B000991F8C0F911DF701E80FF91F80818F3F67
:1002C00021F009C0CF5FC43041F70F5F1F4F0430EA
:1002D000110549F68FEFCF911F910F91FF90EF908D
:1002E000089541E00E945600089541E00E947D007B
:1002F000089540E00E947D0008950E94C500089581
:100300000E94AE00089589E365E041E00E947D000F
:100310008FE99FE00197F1F700C0000089E365E0F5
:1003200040E00E947D000895CF93C82F482F42954A
:100330004F70417089E360E00E947D004C2F429530
:1003400046954770417089E361E00E947D004C2F23
:100350004295469546954370417089E362E00E945C
:100360007D004C2F441F4427441F89E363E00E9413
:100370007D0089E364E041E00E947D000E948301EA
:100380004C2F417089E360E00E947D004C2F469520
:10039000417089E361E00E947D004C2F46954695AF
:1003A000417089E362E00E947D00C695C695C695BE
:1003B0004C2F417089E363E00E947D0089E364E093
:1003C00041E00E947D000E948301CF910895CF9368
:1003D000DF93EC018881882331F021960E949401FB
:1003E00089918823D9F7DF91CF910895CF93C82FB2
:1003F000482F42954F70417089E360E00E947D0074
:100400004C2F429546954770417089E361E00E9408
:100410007D004C2F4295469546954370417089E387
:1004200062E00E947D004C2F441F4427441F89E353
:1004300063E00E947D0089E364E040E00E947D006B
:100440000E9483014C2F417089E360E00E947D008F
:100450004C2F4695417089E361E00E947D004C2F4E
:1004600046954695417089E362E00E947D00C695FD
:10047000C695C6954C2F417089E363E00E947D00CC
:1004800089E364E040E00E947D000E948301CF91F7
:1004900008958FEF91EEA4E081509040A040E1F7E5
:1004A00000C0000089E360E041E00E94560089E35B
:1004B00061E041E00E94560089E362E041E00E9471
:1004C000560089E363E041E00E94560089E365E05D
:1004D00041E00E94560089E364E041E00E9456003A
:1004E00089E366E041E00E94560089E366E040E06F
:1004F0000E947D0082E00E94F601AFE1BEE4119708
:10050000F1F700C0000088E20E94F6018FEC97E04E
:100510000197F1F700C000008EE00E94F601AFECF9
:10052000B7E01197F1F700C0000081E00E94F601EA
:100530008FE19EE40197F1F700C0000080E00E9487
:10054000F601AFECB7E01197F1F700C00000089595
:1005500081E00E94F6010895CF93DF930F92CDB70B
:10056000DEB7813019F4615869830EC0823019F406
:100570006154698309C08150823020F4613110F4E4
:10058000662311F480E8898389810E94F6018FEC4B
:1005900097E00197F1F700C000000F90DF91CF9135
:1005A00008950F931F93CF938C01FC0180818823C2
:1005B00051F0C0E00E949401CF5FF801EC0FF11DF3
:1005C00080818823B9F7CF911F910F9108958EBB39
:1005D0009FBB6DBBE29AE19A8CB381FDFDCF08957C
:1005E0009FBB8EBBE09A8DB30895EF92FF920F935D
:1005F0001F93CF93DF9300D000D0CDB7DEB780E755
:1006000090E00E94E70182E061E00E94AC027E017E
:100610000894E11CF11C00E00E942601182F8F3F76
:10062000D9F30E9494018FEF94E3ACE081509040A5
:10063000A040E1F700C000000F5F82E0602F0E9441
:10064000AC028AE20E949401D7011D937D0104301F
:1006500019F7198180E090E0612F0E94E7020A817A
:1006600081E090E0602F0E94E702FB8082E090E052
:100670006F2D0E94E702EC8083E090E06E2D0E94D7
:10068000E70284E090E063EF0E94E7020E94A80284
:1006900080E890E00E94E7018FEF99E6A8E18150A1
:1006A0009040A040E1F700C0000080E090E00E9490
:1006B000F002181759F581E090E00E94F002081747
:1006C00029F582E090E00E94F002F816F9F483E048
:1006D00090E00E94F002E816C9F484E090E00E94E5
:1006E000F002833F99F40E94A80281E990E00E9401
:1006F000E7018FEF93EDA0E381509040A040E1F738
:1007000000C000000E94A8028FEF1AC00E94A80239
:1007100081EA90E00E94E70182E061E00E94AC0281
:1007200080EB90E00E94E7018FEF93EDA0E3815012
:100730009040A040E1F700C000000E94A80280E0C5
:100740000F900F900F900F90DF91CF911F910F910D
:10075000FF90EF900895EF92FF920F931F93CF9326
:10076000DF9300D000D0CDB7DEB789EB90E00E94D8
:10077000E70182E061E00E94AC027E010894E11C86
:10078000F11C00E00E942601182F8F3FD9F30E9430
:1007900094018FEF94E3ACE081509040A040E1F7EA
:1007A00000C000000F5F82E0602F0E94AC028AE26E
:1007B0000E949401D7011D937D01043019F780E058
:1007C00090E00E94F0029981891741F581E090E064
:1007D0000E94F0029A81891709F582E090E00E9458
:1007E000F0029B818917D1F483E090E00E94F0022F
:1007F0009C81891799F40E94A80289EC90E00E94DC
:10080000E7018FEF93EDA0E381509040A040E1F726
:1008100000C000000E94A8028FEF12C00E94A80230
:1008200088ED90E00E94E7018FEF93EDA0E3815007
:100830009040A040E1F700C000000E94A80280E0C4
:100840000F900F900F900F90DF91CF911F910F910C
:10085000FF90EF9008950E9449020E94E90086E30C
:1008600060E00E94710186E361E00E94710186E30D
:1008700060E00E94790186E361E00E94790184E0F2
:1008800090E00E94F002833F21F412E3C7EED0E033
:1008900028C00E94F502882391F086E360E00E9460
:1008A00075018FEF94E3ACE081509040A040E1F7F8
:1008B00000C0000086E360E00E947901E6CF86E395
:1008C00061E00E9475018FEF94E3ACE081509040AD
:1008D000A040E1F700C0000086E361E00E947901DA
:1008E000D8CF0E94AB03082F8F3F91F486E360E0DE
:1008F0000E9475018FEF94E3ACE081509040A040DE
:10090000E1F700C0000086E360E00E94790129C0A1
:1009100086E361E00E947501CE010E94E701812F0C
:100920000E9494018FEF99E6A8E181509040A04089
:10093000E1F700C0000086E361E00E9479010E94B7
:10094000A80211501F3269F6002359F40E94A80230
:1009500083EF90E00E94E70186E361E00E94750169
:10096000FFCF86E361E00E9475018FEF94E3ACE076
:1009700081509040A040E1F700C0000086E361E0B4
:100980000E9479018FEF94E3ACE081509040A04049
:0C099000E1F700C00000E5CFF894FFCFB5
:10099C003738392F3435362A3132332D43303D2B0D
:1009AC0052657365742050617373776F72643A008B
:1009BC00436F6E6669726D2050617373776F7264EA
:1009CC000050617373776F72642053746F72656437
:1009DC00004572726F7220746F2053746F726500D1
:1009EC0050617373776F726400436865636B20505A
:1009FC00617373776F72643A005269676874205040
:100A0C00617373776F72640077726F6E67205061D9
:100A1C007373776F7264005472696573204C6566EA
:100A2C00743A0053797374656D20436C6F7365640D
:020A3C000000B8
:00000001FF
