S0160000454550524F4D5F457861706D6C652E737265631B
S11300000C942A000C9447000C9447000C9447006D
S11300100C9447000C9447000C9447000C94470040
S11300200C9447000C9447000C9447000C94470030
S11300300C9447000C9447000C9447000C94470020
S11300400C9447000C944E000C9447000C94470009
S11300500C94470011241FBECFE5D8E0DEBFCDBF0E
S113006010E0A0E6B0E0E6E1F2E002C005900D92F7
S1130070A036B107D9F710E0A0E6B0E001C01D92A8
S1130080A036B107E1F70E9449000C9409010C94D1
S11300900000899A7894E39A9198FECF1F920F9268
S11300A00FB60F9211248F939F93AF93BF93919A9E
S11300B08FEF99E6A8E181509040A040E1F700C09D
S11300C00000BF91AF919F918F910F900FBE0F9041
S11300D01F901895613029F4E82FF0E08FEF8183A9
S11300E00895662319F4E82FF0E011820895413051
S11300F079F4E82FF0E0218181E090E0AC0102C0C6
S1130100440F551F6A95E2F7BA01622B6183089583
S1130110442379F4E82FF0E0218181E090E0AC0100
S113012002C0440F551F6A95E2F7BA016095622335
S113013061830895E82FF0E062830895413079F4F3
S1130140E82FF0E0228181E090E0AC0102C0440F8E
S1130150551F6A95E2F7BA01622B6283089544231E
S113016079F4E82FF0E0228181E090E0AC0102C054
S1130170440F551F6A95E2F7BA01609562236283C2
S11301800895CF93DF930F92CDB7DEB7E82FF0E059
S11301908081898389810F90DF91CF910895CF93D6
S11301A0DF930F92CDB7DEB7E82FF0E0808190E0C7
S11301B09C0102C0359527956A95E2F7B9016170F3
S11301C0698389810F90DF91CF910895E82FF0E042
S11301D082818F70828382816295607F68276283C7
S11301E00895E82FF0E08281807F828382816F709E
S11301F06827628308958EBB9FBB6DBBE29AE19A28
S11302008CB381FDFDCF08959FBB8EBBE09A8DB367
S10902100895F894FFCFED
S9030000FC
